{
  "contractName": "Nft",
  "abi": [
    {
      "inputs": [
        {
          "internalType": "string",
          "name": "_collectionName",
          "type": "string"
        },
        {
          "internalType": "string",
          "name": "_collectionSymbol",
          "type": "string"
        },
        {
          "internalType": "string",
          "name": "_collectionBaserURI",
          "type": "string"
        }
      ],
      "stateMutability": "nonpayable",
      "type": "constructor"
    },
    {
      "inputs": [],
      "name": "ApprovalCallerNotOwnerNorApproved",
      "type": "error"
    },
    {
      "inputs": [],
      "name": "ApprovalQueryForNonexistentToken",
      "type": "error"
    },
    {
      "inputs": [],
      "name": "BalanceQueryForZeroAddress",
      "type": "error"
    },
    {
      "inputs": [],
      "name": "MintERC2309QuantityExceedsLimit",
      "type": "error"
    },
    {
      "inputs": [],
      "name": "MintToZeroAddress",
      "type": "error"
    },
    {
      "inputs": [],
      "name": "MintZeroQuantity",
      "type": "error"
    },
    {
      "inputs": [],
      "name": "OwnerQueryForNonexistentToken",
      "type": "error"
    },
    {
      "inputs": [],
      "name": "OwnershipNotInitializedForExtraData",
      "type": "error"
    },
    {
      "inputs": [],
      "name": "TransferCallerNotOwnerNorApproved",
      "type": "error"
    },
    {
      "inputs": [],
      "name": "TransferFromIncorrectOwner",
      "type": "error"
    },
    {
      "inputs": [],
      "name": "TransferToNonERC721ReceiverImplementer",
      "type": "error"
    },
    {
      "inputs": [],
      "name": "TransferToZeroAddress",
      "type": "error"
    },
    {
      "inputs": [],
      "name": "URIQueryForNonexistentToken",
      "type": "error"
    },
    {
      "anonymous": false,
      "inputs": [
        {
          "indexed": true,
          "internalType": "address",
          "name": "owner",
          "type": "address"
        },
        {
          "indexed": true,
          "internalType": "address",
          "name": "approved",
          "type": "address"
        },
        {
          "indexed": true,
          "internalType": "uint256",
          "name": "tokenId",
          "type": "uint256"
        }
      ],
      "name": "Approval",
      "type": "event"
    },
    {
      "anonymous": false,
      "inputs": [
        {
          "indexed": true,
          "internalType": "address",
          "name": "owner",
          "type": "address"
        },
        {
          "indexed": true,
          "internalType": "address",
          "name": "operator",
          "type": "address"
        },
        {
          "indexed": false,
          "internalType": "bool",
          "name": "approved",
          "type": "bool"
        }
      ],
      "name": "ApprovalForAll",
      "type": "event"
    },
    {
      "anonymous": false,
      "inputs": [
        {
          "indexed": true,
          "internalType": "uint256",
          "name": "fromTokenId",
          "type": "uint256"
        },
        {
          "indexed": false,
          "internalType": "uint256",
          "name": "toTokenId",
          "type": "uint256"
        },
        {
          "indexed": true,
          "internalType": "address",
          "name": "from",
          "type": "address"
        },
        {
          "indexed": true,
          "internalType": "address",
          "name": "to",
          "type": "address"
        }
      ],
      "name": "ConsecutiveTransfer",
      "type": "event"
    },
    {
      "anonymous": false,
      "inputs": [
        {
          "indexed": true,
          "internalType": "address",
          "name": "previousOwner",
          "type": "address"
        },
        {
          "indexed": true,
          "internalType": "address",
          "name": "newOwner",
          "type": "address"
        }
      ],
      "name": "OwnershipTransferred",
      "type": "event"
    },
    {
      "anonymous": false,
      "inputs": [
        {
          "indexed": true,
          "internalType": "address",
          "name": "from",
          "type": "address"
        },
        {
          "indexed": true,
          "internalType": "address",
          "name": "to",
          "type": "address"
        },
        {
          "indexed": true,
          "internalType": "uint256",
          "name": "tokenId",
          "type": "uint256"
        }
      ],
      "name": "Transfer",
      "type": "event"
    },
    {
      "inputs": [],
      "name": "MAIN_WALLET",
      "outputs": [
        {
          "internalType": "address",
          "name": "",
          "type": "address"
        }
      ],
      "stateMutability": "view",
      "type": "function",
      "constant": true
    },
    {
      "inputs": [
        {
          "internalType": "address",
          "name": "to",
          "type": "address"
        },
        {
          "internalType": "uint256",
          "name": "tokenId",
          "type": "uint256"
        }
      ],
      "name": "approve",
      "outputs": [],
      "stateMutability": "payable",
      "type": "function",
      "payable": true
    },
    {
      "inputs": [
        {
          "internalType": "address",
          "name": "owner",
          "type": "address"
        }
      ],
      "name": "balanceOf",
      "outputs": [
        {
          "internalType": "uint256",
          "name": "",
          "type": "uint256"
        }
      ],
      "stateMutability": "view",
      "type": "function",
      "constant": true
    },
    {
      "inputs": [
        {
          "internalType": "uint256",
          "name": "tokenId",
          "type": "uint256"
        }
      ],
      "name": "getApproved",
      "outputs": [
        {
          "internalType": "address",
          "name": "",
          "type": "address"
        }
      ],
      "stateMutability": "view",
      "type": "function",
      "constant": true
    },
    {
      "inputs": [
        {
          "internalType": "address",
          "name": "owner",
          "type": "address"
        },
        {
          "internalType": "address",
          "name": "operator",
          "type": "address"
        }
      ],
      "name": "isApprovedForAll",
      "outputs": [
        {
          "internalType": "bool",
          "name": "",
          "type": "bool"
        }
      ],
      "stateMutability": "view",
      "type": "function",
      "constant": true
    },
    {
      "inputs": [],
      "name": "name",
      "outputs": [
        {
          "internalType": "string",
          "name": "",
          "type": "string"
        }
      ],
      "stateMutability": "view",
      "type": "function",
      "constant": true
    },
    {
      "inputs": [],
      "name": "owner",
      "outputs": [
        {
          "internalType": "address",
          "name": "",
          "type": "address"
        }
      ],
      "stateMutability": "view",
      "type": "function",
      "constant": true
    },
    {
      "inputs": [
        {
          "internalType": "uint256",
          "name": "tokenId",
          "type": "uint256"
        }
      ],
      "name": "ownerOf",
      "outputs": [
        {
          "internalType": "address",
          "name": "",
          "type": "address"
        }
      ],
      "stateMutability": "view",
      "type": "function",
      "constant": true
    },
    {
      "inputs": [],
      "name": "renounceOwnership",
      "outputs": [],
      "stateMutability": "nonpayable",
      "type": "function"
    },
    {
      "inputs": [
        {
          "internalType": "address",
          "name": "from",
          "type": "address"
        },
        {
          "internalType": "address",
          "name": "to",
          "type": "address"
        },
        {
          "internalType": "uint256",
          "name": "tokenId",
          "type": "uint256"
        }
      ],
      "name": "safeTransferFrom",
      "outputs": [],
      "stateMutability": "payable",
      "type": "function",
      "payable": true
    },
    {
      "inputs": [
        {
          "internalType": "address",
          "name": "from",
          "type": "address"
        },
        {
          "internalType": "address",
          "name": "to",
          "type": "address"
        },
        {
          "internalType": "uint256",
          "name": "tokenId",
          "type": "uint256"
        },
        {
          "internalType": "bytes",
          "name": "_data",
          "type": "bytes"
        }
      ],
      "name": "safeTransferFrom",
      "outputs": [],
      "stateMutability": "payable",
      "type": "function",
      "payable": true
    },
    {
      "inputs": [
        {
          "internalType": "address",
          "name": "operator",
          "type": "address"
        },
        {
          "internalType": "bool",
          "name": "approved",
          "type": "bool"
        }
      ],
      "name": "setApprovalForAll",
      "outputs": [],
      "stateMutability": "nonpayable",
      "type": "function"
    },
    {
      "inputs": [
        {
          "internalType": "bytes4",
          "name": "interfaceId",
          "type": "bytes4"
        }
      ],
      "name": "supportsInterface",
      "outputs": [
        {
          "internalType": "bool",
          "name": "",
          "type": "bool"
        }
      ],
      "stateMutability": "view",
      "type": "function",
      "constant": true
    },
    {
      "inputs": [],
      "name": "symbol",
      "outputs": [
        {
          "internalType": "string",
          "name": "",
          "type": "string"
        }
      ],
      "stateMutability": "view",
      "type": "function",
      "constant": true
    },
    {
      "inputs": [],
      "name": "totalSupply",
      "outputs": [
        {
          "internalType": "uint256",
          "name": "",
          "type": "uint256"
        }
      ],
      "stateMutability": "view",
      "type": "function",
      "constant": true
    },
    {
      "inputs": [
        {
          "internalType": "address",
          "name": "from",
          "type": "address"
        },
        {
          "internalType": "address",
          "name": "to",
          "type": "address"
        },
        {
          "internalType": "uint256",
          "name": "tokenId",
          "type": "uint256"
        }
      ],
      "name": "transferFrom",
      "outputs": [],
      "stateMutability": "payable",
      "type": "function",
      "payable": true
    },
    {
      "inputs": [
        {
          "internalType": "address",
          "name": "newOwner",
          "type": "address"
        }
      ],
      "name": "transferOwnership",
      "outputs": [],
      "stateMutability": "nonpayable",
      "type": "function"
    },
    {
      "inputs": [],
      "name": "isMintOn",
      "outputs": [
        {
          "internalType": "bool",
          "name": "",
          "type": "bool"
        }
      ],
      "stateMutability": "view",
      "type": "function",
      "constant": true
    },
    {
      "inputs": [],
      "name": "checkPrice",
      "outputs": [
        {
          "internalType": "uint256",
          "name": "",
          "type": "uint256"
        }
      ],
      "stateMutability": "view",
      "type": "function",
      "constant": true
    },
    {
      "inputs": [],
      "name": "checkNumberOfNftMinted",
      "outputs": [
        {
          "internalType": "uint256",
          "name": "",
          "type": "uint256"
        }
      ],
      "stateMutability": "view",
      "type": "function",
      "constant": true
    },
    {
      "inputs": [],
      "name": "stopMint",
      "outputs": [],
      "stateMutability": "nonpayable",
      "type": "function"
    },
    {
      "inputs": [],
      "name": "enableMint",
      "outputs": [],
      "stateMutability": "nonpayable",
      "type": "function"
    },
    {
      "inputs": [
        {
          "internalType": "uint256",
          "name": "_newPrice",
          "type": "uint256"
        }
      ],
      "name": "changePrice",
      "outputs": [],
      "stateMutability": "nonpayable",
      "type": "function"
    },
    {
      "inputs": [
        {
          "internalType": "uint256",
          "name": "_quantity",
          "type": "uint256"
        },
        {
          "internalType": "address",
          "name": "_to",
          "type": "address"
        }
      ],
      "name": "mint",
      "outputs": [],
      "stateMutability": "payable",
      "type": "function",
      "payable": true
    },
    {
      "inputs": [
        {
          "internalType": "uint256",
          "name": "_quantity",
          "type": "uint256"
        }
      ],
      "name": "mintPartnership",
      "outputs": [],
      "stateMutability": "nonpayable",
      "type": "function"
    },
    {
      "inputs": [
        {
          "internalType": "string",
          "name": "_uri",
          "type": "string"
        }
      ],
      "name": "setBaseURI",
      "outputs": [],
      "stateMutability": "nonpayable",
      "type": "function"
    },
    {
      "inputs": [
        {
          "internalType": "uint256",
          "name": "tokenId",
          "type": "uint256"
        }
      ],
      "name": "tokenURI",
      "outputs": [
        {
          "internalType": "string",
          "name": "",
          "type": "string"
        }
      ],
      "stateMutability": "view",
      "type": "function",
      "constant": true
    }
  ],
  "bytecode": "0x60806040526000600a556000600b60006101000a81548160ff02191690831515021790555060405180602001604052806000815250600c90805190602001906200004b929190620001f9565b50670af6a4d07c8f0000600d556000600e553480156200006a57600080fd5b506040516200350238038062003502833981810160405281019062000090919062000446565b82828160029080519060200190620000aa929190620001f9565b508060039080519060200190620000c3929190620001f9565b50620000d46200012660201b60201c565b6000819055505050620000fc620000f06200012b60201b60201c565b6200013360201b60201c565b600160098190555080600c90805190602001906200011c929190620001f9565b5050505062000563565b600090565b600033905090565b6000600860009054906101000a900473ffffffffffffffffffffffffffffffffffffffff16905081600860006101000a81548173ffffffffffffffffffffffffffffffffffffffff021916908373ffffffffffffffffffffffffffffffffffffffff1602179055508173ffffffffffffffffffffffffffffffffffffffff168173ffffffffffffffffffffffffffffffffffffffff167f8be0079c531659141344cd1fd0a4f28419497f9722a3daafe3b4186f6b6457e060405160405180910390a35050565b82805462000207906200052e565b90600052602060002090601f0160209004810192826200022b576000855562000277565b82601f106200024657805160ff191683800117855562000277565b8280016001018555821562000277579182015b828111156200027657825182559160200191906001019062000259565b5b5090506200028691906200028a565b5090565b5b80821115620002a55760008160009055506001016200028b565b5090565b6000604051905090565b600080fd5b600080fd5b600080fd5b600080fd5b6000601f19601f8301169050919050565b7f4e487b7100000000000000000000000000000000000000000000000000000000600052604160045260246000fd5b6200031282620002c7565b810181811067ffffffffffffffff82111715620003345762000333620002d8565b5b80604052505050565b600062000349620002a9565b905062000357828262000307565b919050565b600067ffffffffffffffff8211156200037a5762000379620002d8565b5b6200038582620002c7565b9050602081019050919050565b60005b83811015620003b257808201518184015260208101905062000395565b83811115620003c2576000848401525b50505050565b6000620003df620003d9846200035c565b6200033d565b905082815260208101848484011115620003fe57620003fd620002c2565b5b6200040b84828562000392565b509392505050565b600082601f8301126200042b576200042a620002bd565b5b81516200043d848260208601620003c8565b91505092915050565b600080600060608486031215620004625762000461620002b3565b5b600084015167ffffffffffffffff811115620004835762000482620002b8565b5b620004918682870162000413565b935050602084015167ffffffffffffffff811115620004b557620004b4620002b8565b5b620004c38682870162000413565b925050604084015167ffffffffffffffff811115620004e757620004e6620002b8565b5b620004f58682870162000413565b9150509250925092565b7f4e487b7100000000000000000000000000000000000000000000000000000000600052602260045260246000fd5b600060028204905060018216806200054757607f821691505b6020821081036200055d576200055c620004ff565b5b50919050565b612f8f80620005736000396000f3fe60806040526004361061019c5760003560e01c8063715018a6116100ec578063a22cb4651161008a578063c87b56dd11610064578063c87b56dd1461054b578063d558296514610588578063e985e9c51461059f578063f2fde38b146105dc5761019c565b8063a22cb465146104dd578063a2b40d1914610506578063b88d4fde1461052f5761019c565b80638da5cb5b116100c65780638da5cb5b146104405780638fc3047d1461046b57806394bf804d1461049657806395d89b41146104b25761019c565b8063715018a6146103d3578063762d446b146103ea5780637c51afba146104155761019c565b806323b872dd1161015957806355f804b31161013357806355f804b3146103055780636352211e1461032e5780636e0606241461036b57806370a08231146103965761019c565b806323b872dd146102b657806342842e0e146102d257806344b28d59146102ee5761019c565b806301ffc9a7146101a157806306fdde03146101de578063081812fc14610209578063095ea7b314610246578063096b73331461026257806318160ddd1461028b575b600080fd5b3480156101ad57600080fd5b506101c860048036038101906101c39190611ef1565b610605565b6040516101d59190611f39565b60405180910390f35b3480156101ea57600080fd5b506101f3610697565b6040516102009190611fed565b60405180910390f35b34801561021557600080fd5b50610230600480360381019061022b9190612045565b610729565b60405161023d91906120b3565b60405180910390f35b610260600480360381019061025b91906120fa565b6107a8565b005b34801561026e57600080fd5b5061028960048036038101906102849190612045565b6108ec565b005b34801561029757600080fd5b506102a06109ea565b6040516102ad9190612149565b60405180910390f35b6102d060048036038101906102cb9190612164565b610a01565b005b6102ec60048036038101906102e79190612164565b610d23565b005b3480156102fa57600080fd5b50610303610d43565b005b34801561031157600080fd5b5061032c600480360381019061032791906122ec565b610dbe565b005b34801561033a57600080fd5b5061035560048036038101906103509190612045565b610e6f565b60405161036291906120b3565b60405180910390f35b34801561037757600080fd5b50610380610e81565b60405161038d9190611f39565b60405180910390f35b3480156103a257600080fd5b506103bd60048036038101906103b89190612335565b610e98565b6040516103ca9190612149565b60405180910390f35b3480156103df57600080fd5b506103e8610f50565b005b3480156103f657600080fd5b506103ff610f64565b60405161040c9190612149565b60405180910390f35b34801561042157600080fd5b5061042a610f6e565b60405161043791906120b3565b60405180910390f35b34801561044c57600080fd5b50610455610f86565b60405161046291906120b3565b60405180910390f35b34801561047757600080fd5b50610480610fb0565b60405161048d9190612149565b60405180910390f35b6104b060048036038101906104ab9190612362565b610fba565b005b3480156104be57600080fd5b506104c761119f565b6040516104d49190611fed565b60405180910390f35b3480156104e957600080fd5b5061050460048036038101906104ff91906123ce565b611231565b005b34801561051257600080fd5b5061052d60048036038101906105289190612045565b61133c565b005b610549600480360381019061054491906124af565b611392565b005b34801561055757600080fd5b50610572600480360381019061056d9190612045565b611405565b60405161057f9190611fed565b60405180910390f35b34801561059457600080fd5b5061059d6114a3565b005b3480156105ab57600080fd5b506105c660048036038101906105c19190612532565b61151e565b6040516105d39190611f39565b60405180910390f35b3480156105e857600080fd5b5061060360048036038101906105fe9190612335565b6115b2565b005b60006301ffc9a760e01b827bffffffffffffffffffffffffffffffffffffffffffffffffffffffff1916148061066057506380ac58cd60e01b827bffffffffffffffffffffffffffffffffffffffffffffffffffffffff1916145b806106905750635b5e139f60e01b827bffffffffffffffffffffffffffffffffffffffffffffffffffffffff1916145b9050919050565b6060600280546106a6906125a1565b80601f01602080910402602001604051908101604052809291908181526020018280546106d2906125a1565b801561071f5780601f106106f45761010080835404028352916020019161071f565b820191906000526020600020905b81548152906001019060200180831161070257829003601f168201915b5050505050905090565b600061073482611635565b61076a576040517fcf4700e400000000000000000000000000000000000000000000000000000000815260040160405180910390fd5b6006600083815260200190815260200160002060000160009054906101000a900473ffffffffffffffffffffffffffffffffffffffff169050919050565b60006107b382610e6f565b90508073ffffffffffffffffffffffffffffffffffffffff166107d4611694565b73ffffffffffffffffffffffffffffffffffffffff161461083757610800816107fb611694565b61151e565b610836576040517fcfb3b94200000000000000000000000000000000000000000000000000000000815260040160405180910390fd5b5b826006600084815260200190815260200160002060000160006101000a81548173ffffffffffffffffffffffffffffffffffffffff021916908373ffffffffffffffffffffffffffffffffffffffff160217905550818373ffffffffffffffffffffffffffffffffffffffff168273ffffffffffffffffffffffffffffffffffffffff167f8c5be1e5ebec7d5bd14f71427d1e84f3dd0314c0f7b2291e5b200ac8c7c3b92560405160405180910390a4505050565b6108f461169c565b6103e781600a546109059190612601565b1115610946576040517f08c379a000000000000000000000000000000000000000000000000000000000815260040161093d906126a3565b60405180910390fd5b600981600e546109569190612601565b1115610997576040517f08c379a000000000000000000000000000000000000000000000000000000000815260040161098e90612735565b60405180910390fd5b80600e60008282546109a99190612601565b9250508190555080600a60008282546109c29190612601565b925050819055506109e773accf528dc85ff62df54074e4fb0cc059d86e13fb8261171a565b50565b60006109f46118d5565b6001546000540303905090565b6000610a0c826118da565b90508373ffffffffffffffffffffffffffffffffffffffff168173ffffffffffffffffffffffffffffffffffffffff1614610a73576040517fa114810000000000000000000000000000000000000000000000000000000000815260040160405180910390fd5b600080610a7f846119a6565b91509150610a958187610a90611694565b6119cd565b610ae157610aaa86610aa5611694565b61151e565b610ae0576040517f59c896be00000000000000000000000000000000000000000000000000000000815260040160405180910390fd5b5b600073ffffffffffffffffffffffffffffffffffffffff168573ffffffffffffffffffffffffffffffffffffffff1603610b47576040517fea553b3400000000000000000000000000000000000000000000000000000000815260040160405180910390fd5b610b548686866001611a11565b8015610b5f57600082555b600560008773ffffffffffffffffffffffffffffffffffffffff1673ffffffffffffffffffffffffffffffffffffffff168152602001908152602001600020600081546001900391905081905550600560008673ffffffffffffffffffffffffffffffffffffffff1673ffffffffffffffffffffffffffffffffffffffff1681526020019081526020016000206000815460010191905081905550610c2d85610c09888887611a17565b7c020000000000000000000000000000000000000000000000000000000017611a3f565b600460008681526020019081526020016000208190555060007c0200000000000000000000000000000000000000000000000000000000841603610cb35760006001850190506000600460008381526020019081526020016000205403610cb1576000548114610cb0578360046000838152602001908152602001600020819055505b5b505b838573ffffffffffffffffffffffffffffffffffffffff168773ffffffffffffffffffffffffffffffffffffffff167fddf252ad1be2c89b69c2b068fc378daa952ba7f163c4a11628f55a4df523b3ef60405160405180910390a4610d1b8686866001611a6a565b505050505050565b610d3e83838360405180602001604052806000815250611392565b505050565b610d4b61169c565b60001515600b60009054906101000a900460ff16151514610da1576040517f08c379a0000000000000000000000000000000000000000000000000000000008152600401610d98906127a1565b60405180910390fd5b6001600b60006101000a81548160ff021916908315150217905550565b610dc661169c565b600c604051602001610dd89190612860565b6040516020818303038152906040528051906020012081604051602001610dff91906128a8565b6040516020818303038152906040528051906020012003610e55576040517f08c379a0000000000000000000000000000000000000000000000000000000008152600401610e4c90612931565b60405180910390fd5b80600c9080519060200190610e6b929190611de2565b5050565b6000610e7a826118da565b9050919050565b6000600b60009054906101000a900460ff16905090565b60008073ffffffffffffffffffffffffffffffffffffffff168273ffffffffffffffffffffffffffffffffffffffff1603610eff576040517f8f4eb60400000000000000000000000000000000000000000000000000000000815260040160405180910390fd5b67ffffffffffffffff600560008473ffffffffffffffffffffffffffffffffffffffff1673ffffffffffffffffffffffffffffffffffffffff16815260200190815260200160002054169050919050565b610f5861169c565b610f626000611a70565b565b6000600a54905090565b7347dce4714629be3410e33ef8e211d933859a64e481565b6000600860009054906101000a900473ffffffffffffffffffffffffffffffffffffffff16905090565b6000600d54905090565b610fc2611b36565b60011515600b60009054906101000a900460ff16151514611018576040517f08c379a000000000000000000000000000000000000000000000000000000000815260040161100f9061299d565b60405180910390fd5b6103e782600a546110299190612601565b111561106a576040517f08c379a000000000000000000000000000000000000000000000000000000000815260040161106190612a2f565b60405180910390fd5b600d543410156110af576040517f08c379a00000000000000000000000000000000000000000000000000000000081526004016110a690612ac1565b60405180910390fd5b60007347dce4714629be3410e33ef8e211d933859a64e473ffffffffffffffffffffffffffffffffffffffff16476040516110e990612b12565b60006040518083038185875af1925050503d8060008114611126576040519150601f19603f3d011682016040523d82523d6000602084013e61112b565b606091505b505090508061116f576040517f08c379a000000000000000000000000000000000000000000000000000000000815260040161116690612b73565b60405180910390fd5b82600a60008282546111819190612601565b92505081905550611192828461171a565b5061119b611b85565b5050565b6060600380546111ae906125a1565b80601f01602080910402602001604051908101604052809291908181526020018280546111da906125a1565b80156112275780601f106111fc57610100808354040283529160200191611227565b820191906000526020600020905b81548152906001019060200180831161120a57829003601f168201915b5050505050905090565b806007600061123e611694565b73ffffffffffffffffffffffffffffffffffffffff1673ffffffffffffffffffffffffffffffffffffffff16815260200190815260200160002060008473ffffffffffffffffffffffffffffffffffffffff1673ffffffffffffffffffffffffffffffffffffffff16815260200190815260200160002060006101000a81548160ff0219169083151502179055508173ffffffffffffffffffffffffffffffffffffffff166112eb611694565b73ffffffffffffffffffffffffffffffffffffffff167f17307eab39ab6107e8899845ad3d59bd9653f200f220920489ca2b5937696c31836040516113309190611f39565b60405180910390a35050565b61134461169c565b80600d5403611388576040517f08c379a000000000000000000000000000000000000000000000000000000000815260040161137f90612c05565b60405180910390fd5b80600d8190555050565b61139d848484610a01565b60008373ffffffffffffffffffffffffffffffffffffffff163b146113ff576113c884848484611b8f565b6113fe576040517fd1a57ed600000000000000000000000000000000000000000000000000000000815260040160405180910390fd5b5b50505050565b606061141082611635565b611446576040517fa14c4b5000000000000000000000000000000000000000000000000000000000815260040160405180910390fd5b6000611450611cdf565b90506000815103611470576040518060200160405280600081525061149b565b8061147a84611d71565b60405160200161148b929190612c71565b6040516020818303038152906040525b915050919050565b6114ab61169c565b60011515600b60009054906101000a900460ff16151514611501576040517f08c379a00000000000000000000000000000000000000000000000000000000081526004016114f890612cec565b60405180910390fd5b6000600b60006101000a81548160ff021916908315150217905550565b6000600760008473ffffffffffffffffffffffffffffffffffffffff1673ffffffffffffffffffffffffffffffffffffffff16815260200190815260200160002060008373ffffffffffffffffffffffffffffffffffffffff1673ffffffffffffffffffffffffffffffffffffffff16815260200190815260200160002060009054906101000a900460ff16905092915050565b6115ba61169c565b600073ffffffffffffffffffffffffffffffffffffffff168173ffffffffffffffffffffffffffffffffffffffff1603611629576040517f08c379a000000000000000000000000000000000000000000000000000000000815260040161162090612d7e565b60405180910390fd5b61163281611a70565b50565b6000816116406118d5565b1115801561164f575060005482105b801561168d575060007c0100000000000000000000000000000000000000000000000000000000600460008581526020019081526020016000205416145b9050919050565b600033905090565b6116a4611dc1565b73ffffffffffffffffffffffffffffffffffffffff166116c2610f86565b73ffffffffffffffffffffffffffffffffffffffff1614611718576040517f08c379a000000000000000000000000000000000000000000000000000000000815260040161170f90612dea565b60405180910390fd5b565b6000805490506000820361175a576040517fb562e8dd00000000000000000000000000000000000000000000000000000000815260040160405180910390fd5b6117676000848385611a11565b600160406001901b178202600560008573ffffffffffffffffffffffffffffffffffffffff1673ffffffffffffffffffffffffffffffffffffffff168152602001908152602001600020600082825401925050819055506117de836117cf6000866000611a17565b6117d885611dc9565b17611a3f565b6004600083815260200190815260200160002081905550600080838301905073ffffffffffffffffffffffffffffffffffffffff85169150828260007fddf252ad1be2c89b69c2b068fc378daa952ba7f163c4a11628f55a4df523b3ef600080a4600183015b81811461187f57808360007fddf252ad1be2c89b69c2b068fc378daa952ba7f163c4a11628f55a4df523b3ef600080a4600181019050611844565b50600082036118ba576040517f2e07630000000000000000000000000000000000000000000000000000000000815260040160405180910390fd5b8060008190555050506118d06000848385611a6a565b505050565b600090565b600080829050806118e96118d5565b1161196f5760005481101561196e5760006004600083815260200190815260200160002054905060007c010000000000000000000000000000000000000000000000000000000082160361196c575b60008103611962576004600083600190039350838152602001908152602001600020549050611938565b80925050506119a1565b505b5b6040517fdf2d9b4200000000000000000000000000000000000000000000000000000000815260040160405180910390fd5b919050565b60008060006006600085815260200190815260200160002090508092508254915050915091565b600073ffffffffffffffffffffffffffffffffffffffff8316925073ffffffffffffffffffffffffffffffffffffffff821691508382148383141790509392505050565b50505050565b60008060e883901c905060e8611a2e868684611dd9565b62ffffff16901b9150509392505050565b600073ffffffffffffffffffffffffffffffffffffffff83169250814260a01b178317905092915050565b50505050565b6000600860009054906101000a900473ffffffffffffffffffffffffffffffffffffffff16905081600860006101000a81548173ffffffffffffffffffffffffffffffffffffffff021916908373ffffffffffffffffffffffffffffffffffffffff1602179055508173ffffffffffffffffffffffffffffffffffffffff168173ffffffffffffffffffffffffffffffffffffffff167f8be0079c531659141344cd1fd0a4f28419497f9722a3daafe3b4186f6b6457e060405160405180910390a35050565b600260095403611b7b576040517f08c379a0000000000000000000000000000000000000000000000000000000008152600401611b7290612e56565b60405180910390fd5b6002600981905550565b6001600981905550565b60008373ffffffffffffffffffffffffffffffffffffffff1663150b7a02611bb5611694565b8786866040518563ffffffff1660e01b8152600401611bd79493929190612ecb565b6020604051808303816000875af1925050508015611c1357506040513d601f19601f82011682018060405250810190611c109190612f2c565b60015b611c8c573d8060008114611c43576040519150601f19603f3d011682016040523d82523d6000602084013e611c48565b606091505b506000815103611c84576040517fd1a57ed600000000000000000000000000000000000000000000000000000000815260040160405180910390fd5b805181602001fd5b63150b7a0260e01b7bffffffffffffffffffffffffffffffffffffffffffffffffffffffff1916817bffffffffffffffffffffffffffffffffffffffffffffffffffffffff191614915050949350505050565b6060600c8054611cee906125a1565b80601f0160208091040260200160405190810160405280929190818152602001828054611d1a906125a1565b8015611d675780601f10611d3c57610100808354040283529160200191611d67565b820191906000526020600020905b815481529060010190602001808311611d4a57829003601f168201915b5050505050905090565b606060a060405101806040526020810391506000825281835b600115611dac57600184039350600a81066030018453600a8104905080611d8a575b50828103602084039350808452505050919050565b600033905090565b60006001821460e11b9050919050565b60009392505050565b828054611dee906125a1565b90600052602060002090601f016020900481019282611e105760008555611e57565b82601f10611e2957805160ff1916838001178555611e57565b82800160010185558215611e57579182015b82811115611e56578251825591602001919060010190611e3b565b5b509050611e649190611e68565b5090565b5b80821115611e81576000816000905550600101611e69565b5090565b6000604051905090565b600080fd5b600080fd5b60007fffffffff0000000000000000000000000000000000000000000000000000000082169050919050565b611ece81611e99565b8114611ed957600080fd5b50565b600081359050611eeb81611ec5565b92915050565b600060208284031215611f0757611f06611e8f565b5b6000611f1584828501611edc565b91505092915050565b60008115159050919050565b611f3381611f1e565b82525050565b6000602082019050611f4e6000830184611f2a565b92915050565b600081519050919050565b600082825260208201905092915050565b60005b83811015611f8e578082015181840152602081019050611f73565b83811115611f9d576000848401525b50505050565b6000601f19601f8301169050919050565b6000611fbf82611f54565b611fc98185611f5f565b9350611fd9818560208601611f70565b611fe281611fa3565b840191505092915050565b600060208201905081810360008301526120078184611fb4565b905092915050565b6000819050919050565b6120228161200f565b811461202d57600080fd5b50565b60008135905061203f81612019565b92915050565b60006020828403121561205b5761205a611e8f565b5b600061206984828501612030565b91505092915050565b600073ffffffffffffffffffffffffffffffffffffffff82169050919050565b600061209d82612072565b9050919050565b6120ad81612092565b82525050565b60006020820190506120c860008301846120a4565b92915050565b6120d781612092565b81146120e257600080fd5b50565b6000813590506120f4816120ce565b92915050565b6000806040838503121561211157612110611e8f565b5b600061211f858286016120e5565b925050602061213085828601612030565b9150509250929050565b6121438161200f565b82525050565b600060208201905061215e600083018461213a565b92915050565b60008060006060848603121561217d5761217c611e8f565b5b600061218b868287016120e5565b935050602061219c868287016120e5565b92505060406121ad86828701612030565b9150509250925092565b600080fd5b600080fd5b7f4e487b7100000000000000000000000000000000000000000000000000000000600052604160045260246000fd5b6121f982611fa3565b810181811067ffffffffffffffff82111715612218576122176121c1565b5b80604052505050565b600061222b611e85565b905061223782826121f0565b919050565b600067ffffffffffffffff821115612257576122566121c1565b5b61226082611fa3565b9050602081019050919050565b82818337600083830152505050565b600061228f61228a8461223c565b612221565b9050828152602081018484840111156122ab576122aa6121bc565b5b6122b684828561226d565b509392505050565b600082601f8301126122d3576122d26121b7565b5b81356122e384826020860161227c565b91505092915050565b60006020828403121561230257612301611e8f565b5b600082013567ffffffffffffffff8111156123205761231f611e94565b5b61232c848285016122be565b91505092915050565b60006020828403121561234b5761234a611e8f565b5b6000612359848285016120e5565b91505092915050565b6000806040838503121561237957612378611e8f565b5b600061238785828601612030565b9250506020612398858286016120e5565b9150509250929050565b6123ab81611f1e565b81146123b657600080fd5b50565b6000813590506123c8816123a2565b92915050565b600080604083850312156123e5576123e4611e8f565b5b60006123f3858286016120e5565b9250506020612404858286016123b9565b9150509250929050565b600067ffffffffffffffff821115612429576124286121c1565b5b61243282611fa3565b9050602081019050919050565b600061245261244d8461240e565b612221565b90508281526020810184848401111561246e5761246d6121bc565b5b61247984828561226d565b509392505050565b600082601f830112612496576124956121b7565b5b81356124a684826020860161243f565b91505092915050565b600080600080608085870312156124c9576124c8611e8f565b5b60006124d7878288016120e5565b94505060206124e8878288016120e5565b93505060406124f987828801612030565b925050606085013567ffffffffffffffff81111561251a57612519611e94565b5b61252687828801612481565b91505092959194509250565b6000806040838503121561254957612548611e8f565b5b6000612557858286016120e5565b9250506020612568858286016120e5565b9150509250929050565b7f4e487b7100000000000000000000000000000000000000000000000000000000600052602260045260246000fd5b600060028204905060018216806125b957607f821691505b6020821081036125cc576125cb612572565b5b50919050565b7f4e487b7100000000000000000000000000000000000000000000000000000000600052601160045260246000fd5b600061260c8261200f565b91506126178361200f565b9250827fffffffffffffffffffffffffffffffffffffffffffffffffffffffffffffffff0382111561264c5761264b6125d2565b5b828201905092915050565b7f416c6c20746865204e46542061726520616c7265616479206d696e7465642021600082015250565b600061268d602083611f5f565b915061269882612657565b602082019050919050565b600060208201905081810360008301526126bc81612680565b9050919050565b7f43616e6e6f74206d696e74206d6f7265207468616e203920706172746e65727360008201527f686970204e465400000000000000000000000000000000000000000000000000602082015250565b600061271f602783611f5f565b915061272a826126c3565b604082019050919050565b6000602082019050818103600083015261274e81612712565b9050919050565b7f4d696e7420697320616c7265616479206c697665202100000000000000000000600082015250565b600061278b601683611f5f565b915061279682612755565b602082019050919050565b600060208201905081810360008301526127ba8161277e565b9050919050565b600081905092915050565b60008190508160005260206000209050919050565b600081546127ee816125a1565b6127f881866127c1565b94506001821660008114612813576001811461282457612857565b60ff19831686528186019350612857565b61282d856127cc565b60005b8381101561284f57815481890152600182019150602081019050612830565b838801955050505b50505092915050565b600061286c82846127e1565b915081905092915050565b600061288282611f54565b61288c81856127c1565b935061289c818560208601611f70565b80840191505092915050565b60006128b48284612877565b915081905092915050565b7f5468652055524920697320616c72656164792073657420746f2074686520657860008201527f6163742073616d65205552492021000000000000000000000000000000000000602082015250565b600061291b602e83611f5f565b9150612926826128bf565b604082019050919050565b6000602082019050818103600083015261294a8161290e565b9050919050565b7f4d696e74206973206e6f74206163746976652021000000000000000000000000600082015250565b6000612987601483611f5f565b915061299282612951565b602082019050919050565b600060208201905081810360008301526129b68161297a565b9050919050565b7f416c6c20746865204e46542061726520616c7265616479206d696e746564206f60008201527f7220746f6f206d756368204e46542061736b6564202100000000000000000000602082015250565b6000612a19603683611f5f565b9150612a24826129bd565b604082019050919050565b60006020820190508181036000830152612a4881612a0c565b9050919050565b7f4e6f7420656e6f756768204554482073656e742c20636865636b20707269636560008201527f2100000000000000000000000000000000000000000000000000000000000000602082015250565b6000612aab602183611f5f565b9150612ab682612a4f565b604082019050919050565b60006020820190508181036000830152612ada81612a9e565b9050919050565b600081905092915050565b50565b6000612afc600083612ae1565b9150612b0782612aec565b600082019050919050565b6000612b1d82612aef565b9150819050919050565b7f5472616e73666572206661696c65642e00000000000000000000000000000000600082015250565b6000612b5d601083611f5f565b9150612b6882612b27565b602082019050919050565b60006020820190508181036000830152612b8c81612b50565b9050919050565b7f5468697320707269636520697320616c72656164792073657420746f2074686560008201527f2065786163742073616d65207072696365202100000000000000000000000000602082015250565b6000612bef603383611f5f565b9150612bfa82612b93565b604082019050919050565b60006020820190508181036000830152612c1e81612be2565b9050919050565b7f2e6a736f6e000000000000000000000000000000000000000000000000000000600082015250565b6000612c5b6005836127c1565b9150612c6682612c25565b600582019050919050565b6000612c7d8285612877565b9150612c898284612877565b9150612c9482612c4e565b91508190509392505050565b7f4d696e7420697320616c72656164792073746f70706564202100000000000000600082015250565b6000612cd6601983611f5f565b9150612ce182612ca0565b602082019050919050565b60006020820190508181036000830152612d0581612cc9565b9050919050565b7f4f776e61626c653a206e6577206f776e657220697320746865207a65726f206160008201527f6464726573730000000000000000000000000000000000000000000000000000602082015250565b6000612d68602683611f5f565b9150612d7382612d0c565b604082019050919050565b60006020820190508181036000830152612d9781612d5b565b9050919050565b7f4f776e61626c653a2063616c6c6572206973206e6f7420746865206f776e6572600082015250565b6000612dd4602083611f5f565b9150612ddf82612d9e565b602082019050919050565b60006020820190508181036000830152612e0381612dc7565b9050919050565b7f5265656e7472616e637947756172643a207265656e7472616e742063616c6c00600082015250565b6000612e40601f83611f5f565b9150612e4b82612e0a565b602082019050919050565b60006020820190508181036000830152612e6f81612e33565b9050919050565b600081519050919050565b600082825260208201905092915050565b6000612e9d82612e76565b612ea78185612e81565b9350612eb7818560208601611f70565b612ec081611fa3565b840191505092915050565b6000608082019050612ee060008301876120a4565b612eed60208301866120a4565b612efa604083018561213a565b8181036060830152612f0c8184612e92565b905095945050505050565b600081519050612f2681611ec5565b92915050565b600060208284031215612f4257612f41611e8f565b5b6000612f5084828501612f17565b9150509291505056fea2646970667358221220f82be825547fd4be1c75b3b8d1c30b4ab00952b4b3f0e69e44be4d01912d055f64736f6c634300080e0033",
  "immutableReferences": {},
  "source": "// SPDX-License-Identifier: MIT\npragma solidity 0.8.14;\nimport \"../node_modules/erc721a/contracts/ERC721A.sol\";\nimport \"@openzeppelin/contracts/access/Ownable.sol\";\nimport \"@openzeppelin/contracts/security/ReentrancyGuard.sol\";\n\n/// @title LUX* Christmas Raffle NFT \n/// @author JWMatheo - JW Corp\n/**\n*  @notice LUX* is releasing a unique and exclusive collection to celebrate the end of the year. By purchasing a collectible,\n*          you will randomly win one of the 6 tailor-made experiences in our hotels. You will have to wait until Christmas Day\n*          to discover your gift. You can't choose one, it's random.\n*          Discover more on our website :\n*          https://www.luxresorts-nft.com/ \n*/\n/// @dev Custom ERC721A \ncontract Nft is ERC721A, Ownable, ReentrancyGuard{\n  \n  uint index = 0;\n  bool _isMintOn = false;\n  string uri = '';\n  uint price = 790000000000000000 wei;\n  uint mintPartnershipCount = 0;\n  address public constant MAIN_WALLET = 0x47DcE4714629bE3410e33EF8E211D933859A64E4;\n\n  constructor(string memory _collectionName, string memory _collectionSymbol, string memory _collectionBaserURI) ERC721A(_collectionName,_collectionSymbol) {\n    uri = _collectionBaserURI;\n  }\n  \n  /**\n  * @dev return boolean that authorise 'mint' function to be called.\n  */\n  function isMintOn() external view returns(bool) {\n    return _isMintOn;\n  }\n\n  /**\n  * @dev return the price in wei to mint a NFT.\n  */\n  function checkPrice() external view returns(uint) {\n    return price;\n  }\n\n  /**\n  * @dev return the number of NFT minted.\n  */\n  function checkNumberOfNftMinted() external view returns(uint) {\n    return index;   \n  }   \n  \n\n  /**\n  * @dev disable 'mint' function.\n  *\n  * Requirements:\n  *\n  * - Cannot disable mint if mint is already disabled.\n  */\n  function stopMint() external onlyOwner {\n    require(_isMintOn == true, \"Mint is already stopped !\");\n    _isMintOn = false;\n  }\n\n  /**\n  * @dev enable to use 'mint' function.\n  *\n  * Requirements:\n  *\n  * - Cannot enable mint if mint is already enabled.\n  */\n  function enableMint() external onlyOwner {\n    require(_isMintOn == false, \"Mint is already live !\");\n    _isMintOn = true;\n  }\n  \n  /**\n  * @dev set the price for mint in wei.\n  */\n  function changePrice(uint _newPrice) external onlyOwner {\n    require(price != _newPrice, \"This price is already set to the exact same price !\");\n    price = _newPrice;\n  }\n\n  /**\n  * @dev Create NFT by minting.\n  * Requirements:\n  *\n  * - Mint is active.\n  * - Cannot mint more than 1000 NFT.\n  * - User transfer enought ETH.\n  */\n  function mint(uint _quantity, address _to) external payable nonReentrant{\n    require(_isMintOn == true, \"Mint is not active !\");\n    require(index + _quantity <= 999, \"All the NFT are already minted or too much NFT asked !\");\n    require(msg.value >= price, \"Not enough ETH sent, check price!\"); \n    (bool success, ) = payable(MAIN_WALLET).call{value: address(this).balance}(\"\");\n    require(success, \"Transfer failed.\");\n    index += _quantity;\n    _mint(_to, _quantity);\n  }\n\n  /**\n  * @dev Mint NFT for partnership.\n  */\n  function mintPartnership(uint _quantity) external onlyOwner {\n    require(index + _quantity <= 999, \"All the NFT are already minted !\");\n    require(mintPartnershipCount + _quantity <= 9, \"Cannot mint more than 9 partnership NFT\");\n    mintPartnershipCount += _quantity;\n    index += _quantity;\n    _mint(0xACCF528Dc85Ff62dF54074e4fB0cC059D86E13Fb, _quantity);\n  }\n\n  /**\n  * @dev set a new base uri. \n  * example : https://website.com/ipfs/CID/\n  */\n  function setBaseURI(string memory _uri) external onlyOwner{\n    require(keccak256(abi.encodePacked(_uri)) != keccak256(abi.encodePacked(uri)), \"The URI is already set to the exact same URI !\");\n    uri = _uri;\n  }\n  \n  /**\n  * @dev see chiru-labs ERC721A documentation\n  */\n  function _baseURI() internal view override returns (string memory) {\n      return uri;\n  }\n\n  /**\n  * @dev return the tokenURI of a NFT\n  *\n  * Requirements:\n  *\n  * - Cannot get the URI of unexistent tokenID.\n  */\n  function tokenURI(uint256 tokenId) public view override returns (string memory) {\n      if (!_exists(tokenId)) revert URIQueryForNonexistentToken();\n\n      string memory baseURI = _baseURI();\n      return bytes(baseURI).length != 0 ? string(abi.encodePacked(baseURI, _toString(tokenId), '.json')) : '';\n  }\n}",
  "sourcePath": "/home/matheo/dev/testCrossmint/truffle/contracts/Nft.sol",
  "compiler": {
    "name": "solc",
    "version": "0.8.14+commit.80d49f37.Emscripten.clang"
  },
  "schemaVersion": "3.4.4",
  "updatedAt": "2022-12-07T22:43:42.679Z",
  "networkType": "ethereum",
  "devdoc": {
    "details": "Custom ERC721A ",
    "kind": "dev",
    "methods": {
      "approve(address,uint256)": {
        "details": "Gives permission to `to` to transfer `tokenId` token to another account. The approval is cleared when the token is transferred. Only a single account can be approved at a time, so approving the zero address clears previous approvals. Requirements: - The caller must own the token or be an approved operator. - `tokenId` must exist. Emits an {Approval} event."
      },
      "balanceOf(address)": {
        "details": "Returns the number of tokens in `owner`'s account."
      },
      "changePrice(uint256)": {
        "details": "set the price for mint in wei."
      },
      "checkNumberOfNftMinted()": {
        "details": "return the number of NFT minted."
      },
      "checkPrice()": {
        "details": "return the price in wei to mint a NFT."
      },
      "enableMint()": {
        "details": "enable to use 'mint' function. Requirements: - Cannot enable mint if mint is already enabled."
      },
      "getApproved(uint256)": {
        "details": "Returns the account approved for `tokenId` token. Requirements: - `tokenId` must exist."
      },
      "isApprovedForAll(address,address)": {
        "details": "Returns if the `operator` is allowed to manage all of the assets of `owner`. See {setApprovalForAll}."
      },
      "isMintOn()": {
        "details": "return boolean that authorise 'mint' function to be called."
      },
      "mint(uint256,address)": {
        "details": "Create NFT by minting. Requirements: - Mint is active. - Cannot mint more than 1000 NFT. - User transfer enought ETH."
      },
      "mintPartnership(uint256)": {
        "details": "Mint NFT for partnership."
      },
      "name()": {
        "details": "Returns the token collection name."
      },
      "owner()": {
        "details": "Returns the address of the current owner."
      },
      "ownerOf(uint256)": {
        "details": "Returns the owner of the `tokenId` token. Requirements: - `tokenId` must exist."
      },
      "renounceOwnership()": {
        "details": "Leaves the contract without owner. It will not be possible to call `onlyOwner` functions anymore. Can only be called by the current owner. NOTE: Renouncing ownership will leave the contract without an owner, thereby removing any functionality that is only available to the owner."
      },
      "safeTransferFrom(address,address,uint256)": {
        "details": "Equivalent to `safeTransferFrom(from, to, tokenId, '')`."
      },
      "safeTransferFrom(address,address,uint256,bytes)": {
        "details": "Safely transfers `tokenId` token from `from` to `to`. Requirements: - `from` cannot be the zero address. - `to` cannot be the zero address. - `tokenId` token must exist and be owned by `from`. - If the caller is not `from`, it must be approved to move this token by either {approve} or {setApprovalForAll}. - If `to` refers to a smart contract, it must implement {IERC721Receiver-onERC721Received}, which is called upon a safe transfer. Emits a {Transfer} event."
      },
      "setApprovalForAll(address,bool)": {
        "details": "Approve or remove `operator` as an operator for the caller. Operators can call {transferFrom} or {safeTransferFrom} for any token owned by the caller. Requirements: - The `operator` cannot be the caller. Emits an {ApprovalForAll} event."
      },
      "setBaseURI(string)": {
        "details": "set a new base uri.  example : https://website.com/ipfs/CID/"
      },
      "stopMint()": {
        "details": "disable 'mint' function. Requirements: - Cannot disable mint if mint is already disabled."
      },
      "supportsInterface(bytes4)": {
        "details": "Returns true if this contract implements the interface defined by `interfaceId`. See the corresponding [EIP section](https://eips.ethereum.org/EIPS/eip-165#how-interfaces-are-identified) to learn more about how these ids are created. This function call must use less than 30000 gas."
      },
      "symbol()": {
        "details": "Returns the token collection symbol."
      },
      "tokenURI(uint256)": {
        "details": "return the tokenURI of a NFT Requirements: - Cannot get the URI of unexistent tokenID."
      },
      "totalSupply()": {
        "details": "Returns the total number of tokens in existence. Burned tokens will reduce the count. To get the total number of tokens minted, please see {_totalMinted}."
      },
      "transferFrom(address,address,uint256)": {
        "details": "Transfers `tokenId` from `from` to `to`. Requirements: - `from` cannot be the zero address. - `to` cannot be the zero address. - `tokenId` token must be owned by `from`. - If the caller is not `from`, it must be approved to move this token by either {approve} or {setApprovalForAll}. Emits a {Transfer} event."
      },
      "transferOwnership(address)": {
        "details": "Transfers ownership of the contract to a new account (`newOwner`). Can only be called by the current owner."
      }
    },
    "version": 1
  },
  "userdoc": {
    "errors": {
      "ApprovalCallerNotOwnerNorApproved()": [
        {
          "notice": "The caller must own the token or be an approved operator."
        }
      ],
      "ApprovalQueryForNonexistentToken()": [
        {
          "notice": "The token does not exist."
        }
      ],
      "BalanceQueryForZeroAddress()": [
        {
          "notice": "Cannot query the balance for the zero address."
        }
      ],
      "MintERC2309QuantityExceedsLimit()": [
        {
          "notice": "The `quantity` minted with ERC2309 exceeds the safety limit."
        }
      ],
      "MintToZeroAddress()": [
        {
          "notice": "Cannot mint to the zero address."
        }
      ],
      "MintZeroQuantity()": [
        {
          "notice": "The quantity of tokens minted must be more than zero."
        }
      ],
      "OwnerQueryForNonexistentToken()": [
        {
          "notice": "The token does not exist."
        }
      ],
      "OwnershipNotInitializedForExtraData()": [
        {
          "notice": "The `extraData` cannot be set on an unintialized ownership slot."
        }
      ],
      "TransferCallerNotOwnerNorApproved()": [
        {
          "notice": "The caller must own the token or be an approved operator."
        }
      ],
      "TransferFromIncorrectOwner()": [
        {
          "notice": "The token must be owned by `from`."
        }
      ],
      "TransferToNonERC721ReceiverImplementer()": [
        {
          "notice": "Cannot safely transfer to a contract that does not implement the ERC721Receiver interface."
        }
      ],
      "TransferToZeroAddress()": [
        {
          "notice": "Cannot transfer to the zero address."
        }
      ],
      "URIQueryForNonexistentToken()": [
        {
          "notice": "The token does not exist."
        }
      ]
    },
    "kind": "user",
    "methods": {},
    "version": 1
  }
}