{
  "contractName": "Nft",
  "abi": [
    {
      "inputs": [
        {
          "internalType": "string",
          "name": "_collectionName",
          "type": "string"
        },
        {
          "internalType": "string",
          "name": "_collectionSymbol",
          "type": "string"
        },
        {
          "internalType": "string",
          "name": "_collectionBaserURI",
          "type": "string"
        }
      ],
      "stateMutability": "nonpayable",
      "type": "constructor"
    },
    {
      "inputs": [],
      "name": "ApprovalCallerNotOwnerNorApproved",
      "type": "error"
    },
    {
      "inputs": [],
      "name": "ApprovalQueryForNonexistentToken",
      "type": "error"
    },
    {
      "inputs": [],
      "name": "BalanceQueryForZeroAddress",
      "type": "error"
    },
    {
      "inputs": [],
      "name": "MintERC2309QuantityExceedsLimit",
      "type": "error"
    },
    {
      "inputs": [],
      "name": "MintToZeroAddress",
      "type": "error"
    },
    {
      "inputs": [],
      "name": "MintZeroQuantity",
      "type": "error"
    },
    {
      "inputs": [],
      "name": "OwnerQueryForNonexistentToken",
      "type": "error"
    },
    {
      "inputs": [],
      "name": "OwnershipNotInitializedForExtraData",
      "type": "error"
    },
    {
      "inputs": [],
      "name": "TransferCallerNotOwnerNorApproved",
      "type": "error"
    },
    {
      "inputs": [],
      "name": "TransferFromIncorrectOwner",
      "type": "error"
    },
    {
      "inputs": [],
      "name": "TransferToNonERC721ReceiverImplementer",
      "type": "error"
    },
    {
      "inputs": [],
      "name": "TransferToZeroAddress",
      "type": "error"
    },
    {
      "inputs": [],
      "name": "URIQueryForNonexistentToken",
      "type": "error"
    },
    {
      "anonymous": false,
      "inputs": [
        {
          "indexed": true,
          "internalType": "address",
          "name": "owner",
          "type": "address"
        },
        {
          "indexed": true,
          "internalType": "address",
          "name": "approved",
          "type": "address"
        },
        {
          "indexed": true,
          "internalType": "uint256",
          "name": "tokenId",
          "type": "uint256"
        }
      ],
      "name": "Approval",
      "type": "event"
    },
    {
      "anonymous": false,
      "inputs": [
        {
          "indexed": true,
          "internalType": "address",
          "name": "owner",
          "type": "address"
        },
        {
          "indexed": true,
          "internalType": "address",
          "name": "operator",
          "type": "address"
        },
        {
          "indexed": false,
          "internalType": "bool",
          "name": "approved",
          "type": "bool"
        }
      ],
      "name": "ApprovalForAll",
      "type": "event"
    },
    {
      "anonymous": false,
      "inputs": [
        {
          "indexed": true,
          "internalType": "uint256",
          "name": "fromTokenId",
          "type": "uint256"
        },
        {
          "indexed": false,
          "internalType": "uint256",
          "name": "toTokenId",
          "type": "uint256"
        },
        {
          "indexed": true,
          "internalType": "address",
          "name": "from",
          "type": "address"
        },
        {
          "indexed": true,
          "internalType": "address",
          "name": "to",
          "type": "address"
        }
      ],
      "name": "ConsecutiveTransfer",
      "type": "event"
    },
    {
      "anonymous": false,
      "inputs": [
        {
          "indexed": true,
          "internalType": "address",
          "name": "previousOwner",
          "type": "address"
        },
        {
          "indexed": true,
          "internalType": "address",
          "name": "newOwner",
          "type": "address"
        }
      ],
      "name": "OwnershipTransferred",
      "type": "event"
    },
    {
      "anonymous": false,
      "inputs": [
        {
          "indexed": true,
          "internalType": "address",
          "name": "from",
          "type": "address"
        },
        {
          "indexed": true,
          "internalType": "address",
          "name": "to",
          "type": "address"
        },
        {
          "indexed": true,
          "internalType": "uint256",
          "name": "tokenId",
          "type": "uint256"
        }
      ],
      "name": "Transfer",
      "type": "event"
    },
    {
      "inputs": [],
      "name": "MAIN_WALLET",
      "outputs": [
        {
          "internalType": "address",
          "name": "",
          "type": "address"
        }
      ],
      "stateMutability": "view",
      "type": "function",
      "constant": true
    },
    {
      "inputs": [
        {
          "internalType": "address",
          "name": "to",
          "type": "address"
        },
        {
          "internalType": "uint256",
          "name": "tokenId",
          "type": "uint256"
        }
      ],
      "name": "approve",
      "outputs": [],
      "stateMutability": "payable",
      "type": "function",
      "payable": true
    },
    {
      "inputs": [
        {
          "internalType": "address",
          "name": "owner",
          "type": "address"
        }
      ],
      "name": "balanceOf",
      "outputs": [
        {
          "internalType": "uint256",
          "name": "",
          "type": "uint256"
        }
      ],
      "stateMutability": "view",
      "type": "function",
      "constant": true
    },
    {
      "inputs": [
        {
          "internalType": "uint256",
          "name": "tokenId",
          "type": "uint256"
        }
      ],
      "name": "getApproved",
      "outputs": [
        {
          "internalType": "address",
          "name": "",
          "type": "address"
        }
      ],
      "stateMutability": "view",
      "type": "function",
      "constant": true
    },
    {
      "inputs": [
        {
          "internalType": "address",
          "name": "owner",
          "type": "address"
        },
        {
          "internalType": "address",
          "name": "operator",
          "type": "address"
        }
      ],
      "name": "isApprovedForAll",
      "outputs": [
        {
          "internalType": "bool",
          "name": "",
          "type": "bool"
        }
      ],
      "stateMutability": "view",
      "type": "function",
      "constant": true
    },
    {
      "inputs": [],
      "name": "name",
      "outputs": [
        {
          "internalType": "string",
          "name": "",
          "type": "string"
        }
      ],
      "stateMutability": "view",
      "type": "function",
      "constant": true
    },
    {
      "inputs": [],
      "name": "owner",
      "outputs": [
        {
          "internalType": "address",
          "name": "",
          "type": "address"
        }
      ],
      "stateMutability": "view",
      "type": "function",
      "constant": true
    },
    {
      "inputs": [
        {
          "internalType": "uint256",
          "name": "tokenId",
          "type": "uint256"
        }
      ],
      "name": "ownerOf",
      "outputs": [
        {
          "internalType": "address",
          "name": "",
          "type": "address"
        }
      ],
      "stateMutability": "view",
      "type": "function",
      "constant": true
    },
    {
      "inputs": [],
      "name": "renounceOwnership",
      "outputs": [],
      "stateMutability": "nonpayable",
      "type": "function"
    },
    {
      "inputs": [
        {
          "internalType": "address",
          "name": "from",
          "type": "address"
        },
        {
          "internalType": "address",
          "name": "to",
          "type": "address"
        },
        {
          "internalType": "uint256",
          "name": "tokenId",
          "type": "uint256"
        }
      ],
      "name": "safeTransferFrom",
      "outputs": [],
      "stateMutability": "payable",
      "type": "function",
      "payable": true
    },
    {
      "inputs": [
        {
          "internalType": "address",
          "name": "from",
          "type": "address"
        },
        {
          "internalType": "address",
          "name": "to",
          "type": "address"
        },
        {
          "internalType": "uint256",
          "name": "tokenId",
          "type": "uint256"
        },
        {
          "internalType": "bytes",
          "name": "_data",
          "type": "bytes"
        }
      ],
      "name": "safeTransferFrom",
      "outputs": [],
      "stateMutability": "payable",
      "type": "function",
      "payable": true
    },
    {
      "inputs": [
        {
          "internalType": "address",
          "name": "operator",
          "type": "address"
        },
        {
          "internalType": "bool",
          "name": "approved",
          "type": "bool"
        }
      ],
      "name": "setApprovalForAll",
      "outputs": [],
      "stateMutability": "nonpayable",
      "type": "function"
    },
    {
      "inputs": [
        {
          "internalType": "bytes4",
          "name": "interfaceId",
          "type": "bytes4"
        }
      ],
      "name": "supportsInterface",
      "outputs": [
        {
          "internalType": "bool",
          "name": "",
          "type": "bool"
        }
      ],
      "stateMutability": "view",
      "type": "function",
      "constant": true
    },
    {
      "inputs": [],
      "name": "symbol",
      "outputs": [
        {
          "internalType": "string",
          "name": "",
          "type": "string"
        }
      ],
      "stateMutability": "view",
      "type": "function",
      "constant": true
    },
    {
      "inputs": [],
      "name": "totalSupply",
      "outputs": [
        {
          "internalType": "uint256",
          "name": "",
          "type": "uint256"
        }
      ],
      "stateMutability": "view",
      "type": "function",
      "constant": true
    },
    {
      "inputs": [
        {
          "internalType": "address",
          "name": "from",
          "type": "address"
        },
        {
          "internalType": "address",
          "name": "to",
          "type": "address"
        },
        {
          "internalType": "uint256",
          "name": "tokenId",
          "type": "uint256"
        }
      ],
      "name": "transferFrom",
      "outputs": [],
      "stateMutability": "payable",
      "type": "function",
      "payable": true
    },
    {
      "inputs": [
        {
          "internalType": "address",
          "name": "newOwner",
          "type": "address"
        }
      ],
      "name": "transferOwnership",
      "outputs": [],
      "stateMutability": "nonpayable",
      "type": "function"
    },
    {
      "inputs": [],
      "name": "isMintOn",
      "outputs": [
        {
          "internalType": "bool",
          "name": "",
          "type": "bool"
        }
      ],
      "stateMutability": "view",
      "type": "function",
      "constant": true
    },
    {
      "inputs": [],
      "name": "checkPrice",
      "outputs": [
        {
          "internalType": "uint256",
          "name": "",
          "type": "uint256"
        }
      ],
      "stateMutability": "view",
      "type": "function",
      "constant": true
    },
    {
      "inputs": [],
      "name": "checkNumberOfNftMinted",
      "outputs": [
        {
          "internalType": "uint256",
          "name": "",
          "type": "uint256"
        }
      ],
      "stateMutability": "view",
      "type": "function",
      "constant": true
    },
    {
      "inputs": [],
      "name": "stopMint",
      "outputs": [],
      "stateMutability": "nonpayable",
      "type": "function"
    },
    {
      "inputs": [],
      "name": "enableMint",
      "outputs": [],
      "stateMutability": "nonpayable",
      "type": "function"
    },
    {
      "inputs": [
        {
          "internalType": "uint256",
          "name": "_newPrice",
          "type": "uint256"
        }
      ],
      "name": "changePrice",
      "outputs": [],
      "stateMutability": "nonpayable",
      "type": "function"
    },
    {
      "inputs": [
        {
          "internalType": "uint256",
          "name": "_quantity",
          "type": "uint256"
        },
        {
          "internalType": "address",
          "name": "_to",
          "type": "address"
        }
      ],
      "name": "mint",
      "outputs": [],
      "stateMutability": "payable",
      "type": "function",
      "payable": true
    },
    {
      "inputs": [
        {
          "internalType": "uint256",
          "name": "_quantity",
          "type": "uint256"
        }
      ],
      "name": "mintPartnership",
      "outputs": [],
      "stateMutability": "nonpayable",
      "type": "function"
    },
    {
      "inputs": [
        {
          "internalType": "string",
          "name": "_uri",
          "type": "string"
        }
      ],
      "name": "setBaseURI",
      "outputs": [],
      "stateMutability": "nonpayable",
      "type": "function"
    },
    {
      "inputs": [
        {
          "internalType": "uint256",
          "name": "tokenId",
          "type": "uint256"
        }
      ],
      "name": "tokenURI",
      "outputs": [
        {
          "internalType": "string",
          "name": "",
          "type": "string"
        }
      ],
      "stateMutability": "view",
      "type": "function",
      "constant": true
    }
  ],
  "bytecode": "0x60806040526000600a556001600b60006101000a81548160ff02191690831515021790555060405180602001604052806000815250600c90805190602001906200004b929190620001f9565b50670a8c0ff92d4c0000600d556000600e553480156200006a57600080fd5b506040516200356738038062003567833981810160405281019062000090919062000446565b82828160029080519060200190620000aa929190620001f9565b508060039080519060200190620000c3929190620001f9565b50620000d46200012660201b60201c565b6000819055505050620000fc620000f06200012b60201b60201c565b6200013360201b60201c565b600160098190555080600c90805190602001906200011c929190620001f9565b5050505062000563565b600090565b600033905090565b6000600860009054906101000a900473ffffffffffffffffffffffffffffffffffffffff16905081600860006101000a81548173ffffffffffffffffffffffffffffffffffffffff021916908373ffffffffffffffffffffffffffffffffffffffff1602179055508173ffffffffffffffffffffffffffffffffffffffff168173ffffffffffffffffffffffffffffffffffffffff167f8be0079c531659141344cd1fd0a4f28419497f9722a3daafe3b4186f6b6457e060405160405180910390a35050565b82805462000207906200052e565b90600052602060002090601f0160209004810192826200022b576000855562000277565b82601f106200024657805160ff191683800117855562000277565b8280016001018555821562000277579182015b828111156200027657825182559160200191906001019062000259565b5b5090506200028691906200028a565b5090565b5b80821115620002a55760008160009055506001016200028b565b5090565b6000604051905090565b600080fd5b600080fd5b600080fd5b600080fd5b6000601f19601f8301169050919050565b7f4e487b7100000000000000000000000000000000000000000000000000000000600052604160045260246000fd5b6200031282620002c7565b810181811067ffffffffffffffff82111715620003345762000333620002d8565b5b80604052505050565b600062000349620002a9565b905062000357828262000307565b919050565b600067ffffffffffffffff8211156200037a5762000379620002d8565b5b6200038582620002c7565b9050602081019050919050565b60005b83811015620003b257808201518184015260208101905062000395565b83811115620003c2576000848401525b50505050565b6000620003df620003d9846200035c565b6200033d565b905082815260208101848484011115620003fe57620003fd620002c2565b5b6200040b84828562000392565b509392505050565b600082601f8301126200042b576200042a620002bd565b5b81516200043d848260208601620003c8565b91505092915050565b600080600060608486031215620004625762000461620002b3565b5b600084015167ffffffffffffffff811115620004835762000482620002b8565b5b620004918682870162000413565b935050602084015167ffffffffffffffff811115620004b557620004b4620002b8565b5b620004c38682870162000413565b925050604084015167ffffffffffffffff811115620004e757620004e6620002b8565b5b620004f58682870162000413565b9150509250925092565b7f4e487b7100000000000000000000000000000000000000000000000000000000600052602260045260246000fd5b600060028204905060018216806200054757607f821691505b6020821081036200055d576200055c620004ff565b5b50919050565b612ff480620005736000396000f3fe60806040526004361061019c5760003560e01c8063715018a6116100ec578063a22cb4651161008a578063c87b56dd11610064578063c87b56dd1461054b578063d558296514610588578063e985e9c51461059f578063f2fde38b146105dc5761019c565b8063a22cb465146104dd578063a2b40d1914610506578063b88d4fde1461052f5761019c565b80638da5cb5b116100c65780638da5cb5b146104405780638fc3047d1461046b57806394bf804d1461049657806395d89b41146104b25761019c565b8063715018a6146103d3578063762d446b146103ea5780637c51afba146104155761019c565b806323b872dd1161015957806355f804b31161013357806355f804b3146103055780636352211e1461032e5780636e0606241461036b57806370a08231146103965761019c565b806323b872dd146102b657806342842e0e146102d257806344b28d59146102ee5761019c565b806301ffc9a7146101a157806306fdde03146101de578063081812fc14610209578063095ea7b314610246578063096b73331461026257806318160ddd1461028b575b600080fd5b3480156101ad57600080fd5b506101c860048036038101906101c39190611efc565b610605565b6040516101d59190611f44565b60405180910390f35b3480156101ea57600080fd5b506101f3610697565b6040516102009190611ff8565b60405180910390f35b34801561021557600080fd5b50610230600480360381019061022b9190612050565b610729565b60405161023d91906120be565b60405180910390f35b610260600480360381019061025b9190612105565b6107a8565b005b34801561026e57600080fd5b5061028960048036038101906102849190612050565b6108ec565b005b34801561029757600080fd5b506102a06109ea565b6040516102ad9190612154565b60405180910390f35b6102d060048036038101906102cb919061216f565b610a01565b005b6102ec60048036038101906102e7919061216f565b610d23565b005b3480156102fa57600080fd5b50610303610d43565b005b34801561031157600080fd5b5061032c600480360381019061032791906122f7565b610dbe565b005b34801561033a57600080fd5b5061035560048036038101906103509190612050565b610e6f565b60405161036291906120be565b60405180910390f35b34801561037757600080fd5b50610380610e81565b60405161038d9190611f44565b60405180910390f35b3480156103a257600080fd5b506103bd60048036038101906103b89190612340565b610e98565b6040516103ca9190612154565b60405180910390f35b3480156103df57600080fd5b506103e8610f50565b005b3480156103f657600080fd5b506103ff610f64565b60405161040c9190612154565b60405180910390f35b34801561042157600080fd5b5061042a610f6e565b60405161043791906120be565b60405180910390f35b34801561044c57600080fd5b50610455610f86565b60405161046291906120be565b60405180910390f35b34801561047757600080fd5b50610480610fb0565b60405161048d9190612154565b60405180910390f35b6104b060048036038101906104ab919061236d565b610fba565b005b3480156104be57600080fd5b506104c76111aa565b6040516104d49190611ff8565b60405180910390f35b3480156104e957600080fd5b5061050460048036038101906104ff91906123d9565b61123c565b005b34801561051257600080fd5b5061052d60048036038101906105289190612050565b611347565b005b610549600480360381019061054491906124ba565b61139d565b005b34801561055757600080fd5b50610572600480360381019061056d9190612050565b611410565b60405161057f9190611ff8565b60405180910390f35b34801561059457600080fd5b5061059d6114ae565b005b3480156105ab57600080fd5b506105c660048036038101906105c1919061253d565b611529565b6040516105d39190611f44565b60405180910390f35b3480156105e857600080fd5b5061060360048036038101906105fe9190612340565b6115bd565b005b60006301ffc9a760e01b827bffffffffffffffffffffffffffffffffffffffffffffffffffffffff1916148061066057506380ac58cd60e01b827bffffffffffffffffffffffffffffffffffffffffffffffffffffffff1916145b806106905750635b5e139f60e01b827bffffffffffffffffffffffffffffffffffffffffffffffffffffffff1916145b9050919050565b6060600280546106a6906125ac565b80601f01602080910402602001604051908101604052809291908181526020018280546106d2906125ac565b801561071f5780601f106106f45761010080835404028352916020019161071f565b820191906000526020600020905b81548152906001019060200180831161070257829003601f168201915b5050505050905090565b600061073482611640565b61076a576040517fcf4700e400000000000000000000000000000000000000000000000000000000815260040160405180910390fd5b6006600083815260200190815260200160002060000160009054906101000a900473ffffffffffffffffffffffffffffffffffffffff169050919050565b60006107b382610e6f565b90508073ffffffffffffffffffffffffffffffffffffffff166107d461169f565b73ffffffffffffffffffffffffffffffffffffffff161461083757610800816107fb61169f565b611529565b610836576040517fcfb3b94200000000000000000000000000000000000000000000000000000000815260040160405180910390fd5b5b826006600084815260200190815260200160002060000160006101000a81548173ffffffffffffffffffffffffffffffffffffffff021916908373ffffffffffffffffffffffffffffffffffffffff160217905550818373ffffffffffffffffffffffffffffffffffffffff168273ffffffffffffffffffffffffffffffffffffffff167f8c5be1e5ebec7d5bd14f71427d1e84f3dd0314c0f7b2291e5b200ac8c7c3b92560405160405180910390a4505050565b6108f46116a7565b6103e781600a54610905919061260c565b1115610946576040517f08c379a000000000000000000000000000000000000000000000000000000000815260040161093d906126ae565b60405180910390fd5b601781600e54610956919061260c565b1115610997576040517f08c379a000000000000000000000000000000000000000000000000000000000815260040161098e90612740565b60405180910390fd5b80600e60008282546109a9919061260c565b9250508190555080600a60008282546109c2919061260c565b925050819055506109e7739cddc35c10ef1aab63de0e28894d73074be2e3ec82611725565b50565b60006109f46118e0565b6001546000540303905090565b6000610a0c826118e5565b90508373ffffffffffffffffffffffffffffffffffffffff168173ffffffffffffffffffffffffffffffffffffffff1614610a73576040517fa114810000000000000000000000000000000000000000000000000000000000815260040160405180910390fd5b600080610a7f846119b1565b91509150610a958187610a9061169f565b6119d8565b610ae157610aaa86610aa561169f565b611529565b610ae0576040517f59c896be00000000000000000000000000000000000000000000000000000000815260040160405180910390fd5b5b600073ffffffffffffffffffffffffffffffffffffffff168573ffffffffffffffffffffffffffffffffffffffff1603610b47576040517fea553b3400000000000000000000000000000000000000000000000000000000815260040160405180910390fd5b610b548686866001611a1c565b8015610b5f57600082555b600560008773ffffffffffffffffffffffffffffffffffffffff1673ffffffffffffffffffffffffffffffffffffffff168152602001908152602001600020600081546001900391905081905550600560008673ffffffffffffffffffffffffffffffffffffffff1673ffffffffffffffffffffffffffffffffffffffff1681526020019081526020016000206000815460010191905081905550610c2d85610c09888887611a22565b7c020000000000000000000000000000000000000000000000000000000017611a4a565b600460008681526020019081526020016000208190555060007c0200000000000000000000000000000000000000000000000000000000841603610cb35760006001850190506000600460008381526020019081526020016000205403610cb1576000548114610cb0578360046000838152602001908152602001600020819055505b5b505b838573ffffffffffffffffffffffffffffffffffffffff168773ffffffffffffffffffffffffffffffffffffffff167fddf252ad1be2c89b69c2b068fc378daa952ba7f163c4a11628f55a4df523b3ef60405160405180910390a4610d1b8686866001611a75565b505050505050565b610d3e8383836040518060200160405280600081525061139d565b505050565b610d4b6116a7565b60001515600b60009054906101000a900460ff16151514610da1576040517f08c379a0000000000000000000000000000000000000000000000000000000008152600401610d98906127ac565b60405180910390fd5b6001600b60006101000a81548160ff021916908315150217905550565b610dc66116a7565b600c604051602001610dd8919061286b565b6040516020818303038152906040528051906020012081604051602001610dff91906128b3565b6040516020818303038152906040528051906020012003610e55576040517f08c379a0000000000000000000000000000000000000000000000000000000008152600401610e4c9061293c565b60405180910390fd5b80600c9080519060200190610e6b929190611ded565b5050565b6000610e7a826118e5565b9050919050565b6000600b60009054906101000a900460ff16905090565b60008073ffffffffffffffffffffffffffffffffffffffff168273ffffffffffffffffffffffffffffffffffffffff1603610eff576040517f8f4eb60400000000000000000000000000000000000000000000000000000000815260040160405180910390fd5b67ffffffffffffffff600560008473ffffffffffffffffffffffffffffffffffffffff1673ffffffffffffffffffffffffffffffffffffffff16815260200190815260200160002054169050919050565b610f586116a7565b610f626000611a7b565b565b6000600a54905090565b7347dce4714629be3410e33ef8e211d933859a64e481565b6000600860009054906101000a900473ffffffffffffffffffffffffffffffffffffffff16905090565b6000600d54905090565b610fc2611b41565b60011515600b60009054906101000a900460ff16151514611018576040517f08c379a000000000000000000000000000000000000000000000000000000000815260040161100f906129a8565b60405180910390fd5b6103e782600a54611029919061260c565b111561106a576040517f08c379a000000000000000000000000000000000000000000000000000000000815260040161106190612a3a565b60405180910390fd5b81600d546110789190612a5a565b3410156110ba576040517f08c379a00000000000000000000000000000000000000000000000000000000081526004016110b190612b26565b60405180910390fd5b60007347dce4714629be3410e33ef8e211d933859a64e473ffffffffffffffffffffffffffffffffffffffff16476040516110f490612b77565b60006040518083038185875af1925050503d8060008114611131576040519150601f19603f3d011682016040523d82523d6000602084013e611136565b606091505b505090508061117a576040517f08c379a000000000000000000000000000000000000000000000000000000000815260040161117190612bd8565b60405180910390fd5b82600a600082825461118c919061260c565b9250508190555061119d8284611725565b506111a6611b90565b5050565b6060600380546111b9906125ac565b80601f01602080910402602001604051908101604052809291908181526020018280546111e5906125ac565b80156112325780601f1061120757610100808354040283529160200191611232565b820191906000526020600020905b81548152906001019060200180831161121557829003601f168201915b5050505050905090565b806007600061124961169f565b73ffffffffffffffffffffffffffffffffffffffff1673ffffffffffffffffffffffffffffffffffffffff16815260200190815260200160002060008473ffffffffffffffffffffffffffffffffffffffff1673ffffffffffffffffffffffffffffffffffffffff16815260200190815260200160002060006101000a81548160ff0219169083151502179055508173ffffffffffffffffffffffffffffffffffffffff166112f661169f565b73ffffffffffffffffffffffffffffffffffffffff167f17307eab39ab6107e8899845ad3d59bd9653f200f220920489ca2b5937696c318360405161133b9190611f44565b60405180910390a35050565b61134f6116a7565b80600d5403611393576040517f08c379a000000000000000000000000000000000000000000000000000000000815260040161138a90612c6a565b60405180910390fd5b80600d8190555050565b6113a8848484610a01565b60008373ffffffffffffffffffffffffffffffffffffffff163b1461140a576113d384848484611b9a565b611409576040517fd1a57ed600000000000000000000000000000000000000000000000000000000815260040160405180910390fd5b5b50505050565b606061141b82611640565b611451576040517fa14c4b5000000000000000000000000000000000000000000000000000000000815260040160405180910390fd5b600061145b611cea565b9050600081510361147b57604051806020016040528060008152506114a6565b8061148584611d7c565b604051602001611496929190612cd6565b6040516020818303038152906040525b915050919050565b6114b66116a7565b60011515600b60009054906101000a900460ff1615151461150c576040517f08c379a000000000000000000000000000000000000000000000000000000000815260040161150390612d51565b60405180910390fd5b6000600b60006101000a81548160ff021916908315150217905550565b6000600760008473ffffffffffffffffffffffffffffffffffffffff1673ffffffffffffffffffffffffffffffffffffffff16815260200190815260200160002060008373ffffffffffffffffffffffffffffffffffffffff1673ffffffffffffffffffffffffffffffffffffffff16815260200190815260200160002060009054906101000a900460ff16905092915050565b6115c56116a7565b600073ffffffffffffffffffffffffffffffffffffffff168173ffffffffffffffffffffffffffffffffffffffff1603611634576040517f08c379a000000000000000000000000000000000000000000000000000000000815260040161162b90612de3565b60405180910390fd5b61163d81611a7b565b50565b60008161164b6118e0565b1115801561165a575060005482105b8015611698575060007c0100000000000000000000000000000000000000000000000000000000600460008581526020019081526020016000205416145b9050919050565b600033905090565b6116af611dcc565b73ffffffffffffffffffffffffffffffffffffffff166116cd610f86565b73ffffffffffffffffffffffffffffffffffffffff1614611723576040517f08c379a000000000000000000000000000000000000000000000000000000000815260040161171a90612e4f565b60405180910390fd5b565b60008054905060008203611765576040517fb562e8dd00000000000000000000000000000000000000000000000000000000815260040160405180910390fd5b6117726000848385611a1c565b600160406001901b178202600560008573ffffffffffffffffffffffffffffffffffffffff1673ffffffffffffffffffffffffffffffffffffffff168152602001908152602001600020600082825401925050819055506117e9836117da6000866000611a22565b6117e385611dd4565b17611a4a565b6004600083815260200190815260200160002081905550600080838301905073ffffffffffffffffffffffffffffffffffffffff85169150828260007fddf252ad1be2c89b69c2b068fc378daa952ba7f163c4a11628f55a4df523b3ef600080a4600183015b81811461188a57808360007fddf252ad1be2c89b69c2b068fc378daa952ba7f163c4a11628f55a4df523b3ef600080a460018101905061184f565b50600082036118c5576040517f2e07630000000000000000000000000000000000000000000000000000000000815260040160405180910390fd5b8060008190555050506118db6000848385611a75565b505050565b600090565b600080829050806118f46118e0565b1161197a576000548110156119795760006004600083815260200190815260200160002054905060007c0100000000000000000000000000000000000000000000000000000000821603611977575b6000810361196d576004600083600190039350838152602001908152602001600020549050611943565b80925050506119ac565b505b5b6040517fdf2d9b4200000000000000000000000000000000000000000000000000000000815260040160405180910390fd5b919050565b60008060006006600085815260200190815260200160002090508092508254915050915091565b600073ffffffffffffffffffffffffffffffffffffffff8316925073ffffffffffffffffffffffffffffffffffffffff821691508382148383141790509392505050565b50505050565b60008060e883901c905060e8611a39868684611de4565b62ffffff16901b9150509392505050565b600073ffffffffffffffffffffffffffffffffffffffff83169250814260a01b178317905092915050565b50505050565b6000600860009054906101000a900473ffffffffffffffffffffffffffffffffffffffff16905081600860006101000a81548173ffffffffffffffffffffffffffffffffffffffff021916908373ffffffffffffffffffffffffffffffffffffffff1602179055508173ffffffffffffffffffffffffffffffffffffffff168173ffffffffffffffffffffffffffffffffffffffff167f8be0079c531659141344cd1fd0a4f28419497f9722a3daafe3b4186f6b6457e060405160405180910390a35050565b600260095403611b86576040517f08c379a0000000000000000000000000000000000000000000000000000000008152600401611b7d90612ebb565b60405180910390fd5b6002600981905550565b6001600981905550565b60008373ffffffffffffffffffffffffffffffffffffffff1663150b7a02611bc061169f565b8786866040518563ffffffff1660e01b8152600401611be29493929190612f30565b6020604051808303816000875af1925050508015611c1e57506040513d601f19601f82011682018060405250810190611c1b9190612f91565b60015b611c97573d8060008114611c4e576040519150601f19603f3d011682016040523d82523d6000602084013e611c53565b606091505b506000815103611c8f576040517fd1a57ed600000000000000000000000000000000000000000000000000000000815260040160405180910390fd5b805181602001fd5b63150b7a0260e01b7bffffffffffffffffffffffffffffffffffffffffffffffffffffffff1916817bffffffffffffffffffffffffffffffffffffffffffffffffffffffff191614915050949350505050565b6060600c8054611cf9906125ac565b80601f0160208091040260200160405190810160405280929190818152602001828054611d25906125ac565b8015611d725780601f10611d4757610100808354040283529160200191611d72565b820191906000526020600020905b815481529060010190602001808311611d5557829003601f168201915b5050505050905090565b606060a060405101806040526020810391506000825281835b600115611db757600184039350600a81066030018453600a8104905080611d95575b50828103602084039350808452505050919050565b600033905090565b60006001821460e11b9050919050565b60009392505050565b828054611df9906125ac565b90600052602060002090601f016020900481019282611e1b5760008555611e62565b82601f10611e3457805160ff1916838001178555611e62565b82800160010185558215611e62579182015b82811115611e61578251825591602001919060010190611e46565b5b509050611e6f9190611e73565b5090565b5b80821115611e8c576000816000905550600101611e74565b5090565b6000604051905090565b600080fd5b600080fd5b60007fffffffff0000000000000000000000000000000000000000000000000000000082169050919050565b611ed981611ea4565b8114611ee457600080fd5b50565b600081359050611ef681611ed0565b92915050565b600060208284031215611f1257611f11611e9a565b5b6000611f2084828501611ee7565b91505092915050565b60008115159050919050565b611f3e81611f29565b82525050565b6000602082019050611f596000830184611f35565b92915050565b600081519050919050565b600082825260208201905092915050565b60005b83811015611f99578082015181840152602081019050611f7e565b83811115611fa8576000848401525b50505050565b6000601f19601f8301169050919050565b6000611fca82611f5f565b611fd48185611f6a565b9350611fe4818560208601611f7b565b611fed81611fae565b840191505092915050565b600060208201905081810360008301526120128184611fbf565b905092915050565b6000819050919050565b61202d8161201a565b811461203857600080fd5b50565b60008135905061204a81612024565b92915050565b60006020828403121561206657612065611e9a565b5b60006120748482850161203b565b91505092915050565b600073ffffffffffffffffffffffffffffffffffffffff82169050919050565b60006120a88261207d565b9050919050565b6120b88161209d565b82525050565b60006020820190506120d360008301846120af565b92915050565b6120e28161209d565b81146120ed57600080fd5b50565b6000813590506120ff816120d9565b92915050565b6000806040838503121561211c5761211b611e9a565b5b600061212a858286016120f0565b925050602061213b8582860161203b565b9150509250929050565b61214e8161201a565b82525050565b60006020820190506121696000830184612145565b92915050565b60008060006060848603121561218857612187611e9a565b5b6000612196868287016120f0565b93505060206121a7868287016120f0565b92505060406121b88682870161203b565b9150509250925092565b600080fd5b600080fd5b7f4e487b7100000000000000000000000000000000000000000000000000000000600052604160045260246000fd5b61220482611fae565b810181811067ffffffffffffffff82111715612223576122226121cc565b5b80604052505050565b6000612236611e90565b905061224282826121fb565b919050565b600067ffffffffffffffff821115612262576122616121cc565b5b61226b82611fae565b9050602081019050919050565b82818337600083830152505050565b600061229a61229584612247565b61222c565b9050828152602081018484840111156122b6576122b56121c7565b5b6122c1848285612278565b509392505050565b600082601f8301126122de576122dd6121c2565b5b81356122ee848260208601612287565b91505092915050565b60006020828403121561230d5761230c611e9a565b5b600082013567ffffffffffffffff81111561232b5761232a611e9f565b5b612337848285016122c9565b91505092915050565b60006020828403121561235657612355611e9a565b5b6000612364848285016120f0565b91505092915050565b6000806040838503121561238457612383611e9a565b5b60006123928582860161203b565b92505060206123a3858286016120f0565b9150509250929050565b6123b681611f29565b81146123c157600080fd5b50565b6000813590506123d3816123ad565b92915050565b600080604083850312156123f0576123ef611e9a565b5b60006123fe858286016120f0565b925050602061240f858286016123c4565b9150509250929050565b600067ffffffffffffffff821115612434576124336121cc565b5b61243d82611fae565b9050602081019050919050565b600061245d61245884612419565b61222c565b905082815260208101848484011115612479576124786121c7565b5b612484848285612278565b509392505050565b600082601f8301126124a1576124a06121c2565b5b81356124b184826020860161244a565b91505092915050565b600080600080608085870312156124d4576124d3611e9a565b5b60006124e2878288016120f0565b94505060206124f3878288016120f0565b93505060406125048782880161203b565b925050606085013567ffffffffffffffff81111561252557612524611e9f565b5b6125318782880161248c565b91505092959194509250565b6000806040838503121561255457612553611e9a565b5b6000612562858286016120f0565b9250506020612573858286016120f0565b9150509250929050565b7f4e487b7100000000000000000000000000000000000000000000000000000000600052602260045260246000fd5b600060028204905060018216806125c457607f821691505b6020821081036125d7576125d661257d565b5b50919050565b7f4e487b7100000000000000000000000000000000000000000000000000000000600052601160045260246000fd5b60006126178261201a565b91506126228361201a565b9250827fffffffffffffffffffffffffffffffffffffffffffffffffffffffffffffffff03821115612657576126566125dd565b5b828201905092915050565b7f416c6c20746865204e46542061726520616c7265616479206d696e7465642021600082015250565b6000612698602083611f6a565b91506126a382612662565b602082019050919050565b600060208201905081810360008301526126c78161268b565b9050919050565b7f43616e6e6f74206d696e74206d6f7265207468616e20323320706172746e657260008201527f73686970204e4654000000000000000000000000000000000000000000000000602082015250565b600061272a602883611f6a565b9150612735826126ce565b604082019050919050565b600060208201905081810360008301526127598161271d565b9050919050565b7f4d696e7420697320616c7265616479206c697665202100000000000000000000600082015250565b6000612796601683611f6a565b91506127a182612760565b602082019050919050565b600060208201905081810360008301526127c581612789565b9050919050565b600081905092915050565b60008190508160005260206000209050919050565b600081546127f9816125ac565b61280381866127cc565b9450600182166000811461281e576001811461282f57612862565b60ff19831686528186019350612862565b612838856127d7565b60005b8381101561285a5781548189015260018201915060208101905061283b565b838801955050505b50505092915050565b600061287782846127ec565b915081905092915050565b600061288d82611f5f565b61289781856127cc565b93506128a7818560208601611f7b565b80840191505092915050565b60006128bf8284612882565b915081905092915050565b7f5468652055524920697320616c72656164792073657420746f2074686520657860008201527f6163742073616d65205552492021000000000000000000000000000000000000602082015250565b6000612926602e83611f6a565b9150612931826128ca565b604082019050919050565b6000602082019050818103600083015261295581612919565b9050919050565b7f4d696e74206973206e6f74206163746976652021000000000000000000000000600082015250565b6000612992601483611f6a565b915061299d8261295c565b602082019050919050565b600060208201905081810360008301526129c181612985565b9050919050565b7f416c6c20746865204e46542061726520616c7265616479206d696e746564206f60008201527f7220746f6f206d756368204e46542061736b6564202100000000000000000000602082015250565b6000612a24603683611f6a565b9150612a2f826129c8565b604082019050919050565b60006020820190508181036000830152612a5381612a17565b9050919050565b6000612a658261201a565b9150612a708361201a565b9250817fffffffffffffffffffffffffffffffffffffffffffffffffffffffffffffffff0483118215151615612aa957612aa86125dd565b5b828202905092915050565b7f4e6f7420656e6f756768204554482073656e742c20636865636b20707269636560008201527f2100000000000000000000000000000000000000000000000000000000000000602082015250565b6000612b10602183611f6a565b9150612b1b82612ab4565b604082019050919050565b60006020820190508181036000830152612b3f81612b03565b9050919050565b600081905092915050565b50565b6000612b61600083612b46565b9150612b6c82612b51565b600082019050919050565b6000612b8282612b54565b9150819050919050565b7f5472616e73666572206661696c65642e00000000000000000000000000000000600082015250565b6000612bc2601083611f6a565b9150612bcd82612b8c565b602082019050919050565b60006020820190508181036000830152612bf181612bb5565b9050919050565b7f5468697320707269636520697320616c72656164792073657420746f2074686560008201527f2065786163742073616d65207072696365202100000000000000000000000000602082015250565b6000612c54603383611f6a565b9150612c5f82612bf8565b604082019050919050565b60006020820190508181036000830152612c8381612c47565b9050919050565b7f2e6a736f6e000000000000000000000000000000000000000000000000000000600082015250565b6000612cc06005836127cc565b9150612ccb82612c8a565b600582019050919050565b6000612ce28285612882565b9150612cee8284612882565b9150612cf982612cb3565b91508190509392505050565b7f4d696e7420697320616c72656164792073746f70706564202100000000000000600082015250565b6000612d3b601983611f6a565b9150612d4682612d05565b602082019050919050565b60006020820190508181036000830152612d6a81612d2e565b9050919050565b7f4f776e61626c653a206e6577206f776e657220697320746865207a65726f206160008201527f6464726573730000000000000000000000000000000000000000000000000000602082015250565b6000612dcd602683611f6a565b9150612dd882612d71565b604082019050919050565b60006020820190508181036000830152612dfc81612dc0565b9050919050565b7f4f776e61626c653a2063616c6c6572206973206e6f7420746865206f776e6572600082015250565b6000612e39602083611f6a565b9150612e4482612e03565b602082019050919050565b60006020820190508181036000830152612e6881612e2c565b9050919050565b7f5265656e7472616e637947756172643a207265656e7472616e742063616c6c00600082015250565b6000612ea5601f83611f6a565b9150612eb082612e6f565b602082019050919050565b60006020820190508181036000830152612ed481612e98565b9050919050565b600081519050919050565b600082825260208201905092915050565b6000612f0282612edb565b612f0c8185612ee6565b9350612f1c818560208601611f7b565b612f2581611fae565b840191505092915050565b6000608082019050612f4560008301876120af565b612f5260208301866120af565b612f5f6040830185612145565b8181036060830152612f718184612ef7565b905095945050505050565b600081519050612f8b81611ed0565b92915050565b600060208284031215612fa757612fa6611e9a565b5b6000612fb584828501612f7c565b9150509291505056fea2646970667358221220c00534adbd052e2904b408e1020a5b1d21e11c02604bdab92d089457c55c1d2164736f6c634300080e0033",
  "immutableReferences": {},
  "source": "// SPDX-License-Identifier: MIT\npragma solidity 0.8.14;\nimport \"../node_modules/erc721a/contracts/ERC721A.sol\";\nimport \"../node_modules/@openzeppelin/contracts/access/Ownable.sol\";\nimport \"../node_modules/@openzeppelin/contracts/security/ReentrancyGuard.sol\";\n\n/// @title LUX* Christmas Raffle NFT \n/// @author JWMatheo - JW Corp\n/**\n*  @notice LUX* is releasing a unique and exclusive collection to celebrate the end of the year. By purchasing a collectible,\n*          you will randomly win one of the 6 tailor-made experiences in our hotels. You will have to wait until Christmas Day\n*          to discover your gift. You can't choose one, it's random.\n*          Discover more on our website :\n*          https://www.luxresorts-nft.com/ \n*/\n/// @dev Custom ERC721A \ncontract Nft is ERC721A, Ownable, ReentrancyGuard{\n  \n  uint index = 0;\n  bool _isMintOn = true;\n  string uri = '';\n  uint price = 760000000000000000 wei;\n  uint mintPartnershipCount = 0;\n  address public constant MAIN_WALLET = 0x47DcE4714629bE3410e33EF8E211D933859A64E4;\n\n  constructor(string memory _collectionName, string memory _collectionSymbol, string memory _collectionBaserURI) ERC721A(_collectionName,_collectionSymbol) {\n    uri = _collectionBaserURI;\n  }\n  \n  /**\n  * @dev return boolean that authorise 'mint' function to be called.\n  */\n  function isMintOn() external view returns(bool) {\n    return _isMintOn;\n  }\n\n  /**\n  * @dev return the price in wei to mint a NFT.\n  */\n  function checkPrice() external view returns(uint) {\n    return price;\n  }\n\n  /**\n  * @dev return the number of NFT minted.\n  */\n  function checkNumberOfNftMinted() external view returns(uint) {\n    return index;   \n  }   \n  \n\n  /**\n  * @dev disable 'mint' function.\n  *\n  * Requirements:\n  *\n  * - Cannot disable mint if mint is already disabled.\n  */\n  function stopMint() external onlyOwner {\n    require(_isMintOn == true, \"Mint is already stopped !\");\n    _isMintOn = false;\n  }\n\n  /**\n  * @dev enable to use 'mint' function.\n  *\n  * Requirements:\n  *\n  * - Cannot enable mint if mint is already enabled.\n  */\n  function enableMint() external onlyOwner {\n    require(_isMintOn == false, \"Mint is already live !\");\n    _isMintOn = true;\n  }\n  \n  /**\n  * @dev set the price for mint in wei.\n  */\n  function changePrice(uint _newPrice) external onlyOwner {\n    require(price != _newPrice, \"This price is already set to the exact same price !\");\n    price = _newPrice;\n  }\n\n  /**\n  * @dev Create NFT by minting.\n  * Requirements:\n  *\n  * - Mint is active.\n  * - Cannot mint more than 1000 NFT.\n  * - User transfer enought ETH.\n  */\n  function mint(uint _quantity, address _to) external payable nonReentrant{\n    require(_isMintOn == true, \"Mint is not active !\");\n    require(index + _quantity <= 999, \"All the NFT are already minted or too much NFT asked !\");\n    require(msg.value >= price * _quantity, \"Not enough ETH sent, check price!\"); \n    (bool success, ) = payable(MAIN_WALLET).call{value: address(this).balance}(\"\");\n    require(success, \"Transfer failed.\");\n    index += _quantity;\n    _mint(_to, _quantity);\n  }\n\n  /**\n  * @dev Mint NFT for partnership.\n  */\n  function mintPartnership(uint _quantity) external onlyOwner {\n    require(index + _quantity <= 999, \"All the NFT are already minted !\");\n    require(mintPartnershipCount + _quantity <= 23, \"Cannot mint more than 23 partnership NFT\");\n    mintPartnershipCount += _quantity;\n    index += _quantity;\n    _mint(0x9CDdc35c10Ef1AAB63dE0e28894D73074BE2e3EC, _quantity);\n  }\n\n  /**\n  * @dev set a new base uri. \n  * example : https://website.com/ipfs/CID/\n  */\n  function setBaseURI(string memory _uri) external onlyOwner{\n    require(keccak256(abi.encodePacked(_uri)) != keccak256(abi.encodePacked(uri)), \"The URI is already set to the exact same URI !\");\n    uri = _uri;\n  }\n  \n  /**\n  * @dev see chiru-labs ERC721A documentation\n  */\n  function _baseURI() internal view override returns (string memory) {\n      return uri;\n  }\n\n  /**\n  * @dev return the tokenURI of a NFT\n  *\n  * Requirements:\n  *\n  * - Cannot get the URI of unexistent tokenID.\n  */\n  function tokenURI(uint256 tokenId) public view override returns (string memory) {\n      if (!_exists(tokenId)) revert URIQueryForNonexistentToken();\n\n      string memory baseURI = _baseURI();\n      return bytes(baseURI).length != 0 ? string(abi.encodePacked(baseURI, _toString(tokenId), '.json')) : '';\n  }\n}",
  "sourcePath": "/home/matheo/dev/testCrossmint/truffle/contracts/Nft.sol",
  "compiler": {
    "name": "solc",
    "version": "0.8.14+commit.80d49f37.Emscripten.clang"
  },
  "schemaVersion": "3.4.4",
  "updatedAt": "2022-12-13T19:30:32.066Z",
  "networkType": "ethereum",
  "devdoc": {
    "details": "Custom ERC721A ",
    "kind": "dev",
    "methods": {
      "approve(address,uint256)": {
        "details": "Gives permission to `to` to transfer `tokenId` token to another account. The approval is cleared when the token is transferred. Only a single account can be approved at a time, so approving the zero address clears previous approvals. Requirements: - The caller must own the token or be an approved operator. - `tokenId` must exist. Emits an {Approval} event."
      },
      "balanceOf(address)": {
        "details": "Returns the number of tokens in `owner`'s account."
      },
      "changePrice(uint256)": {
        "details": "set the price for mint in wei."
      },
      "checkNumberOfNftMinted()": {
        "details": "return the number of NFT minted."
      },
      "checkPrice()": {
        "details": "return the price in wei to mint a NFT."
      },
      "enableMint()": {
        "details": "enable to use 'mint' function. Requirements: - Cannot enable mint if mint is already enabled."
      },
      "getApproved(uint256)": {
        "details": "Returns the account approved for `tokenId` token. Requirements: - `tokenId` must exist."
      },
      "isApprovedForAll(address,address)": {
        "details": "Returns if the `operator` is allowed to manage all of the assets of `owner`. See {setApprovalForAll}."
      },
      "isMintOn()": {
        "details": "return boolean that authorise 'mint' function to be called."
      },
      "mint(uint256,address)": {
        "details": "Create NFT by minting. Requirements: - Mint is active. - Cannot mint more than 1000 NFT. - User transfer enought ETH."
      },
      "mintPartnership(uint256)": {
        "details": "Mint NFT for partnership."
      },
      "name()": {
        "details": "Returns the token collection name."
      },
      "owner()": {
        "details": "Returns the address of the current owner."
      },
      "ownerOf(uint256)": {
        "details": "Returns the owner of the `tokenId` token. Requirements: - `tokenId` must exist."
      },
      "renounceOwnership()": {
        "details": "Leaves the contract without owner. It will not be possible to call `onlyOwner` functions anymore. Can only be called by the current owner. NOTE: Renouncing ownership will leave the contract without an owner, thereby removing any functionality that is only available to the owner."
      },
      "safeTransferFrom(address,address,uint256)": {
        "details": "Equivalent to `safeTransferFrom(from, to, tokenId, '')`."
      },
      "safeTransferFrom(address,address,uint256,bytes)": {
        "details": "Safely transfers `tokenId` token from `from` to `to`. Requirements: - `from` cannot be the zero address. - `to` cannot be the zero address. - `tokenId` token must exist and be owned by `from`. - If the caller is not `from`, it must be approved to move this token by either {approve} or {setApprovalForAll}. - If `to` refers to a smart contract, it must implement {IERC721Receiver-onERC721Received}, which is called upon a safe transfer. Emits a {Transfer} event."
      },
      "setApprovalForAll(address,bool)": {
        "details": "Approve or remove `operator` as an operator for the caller. Operators can call {transferFrom} or {safeTransferFrom} for any token owned by the caller. Requirements: - The `operator` cannot be the caller. Emits an {ApprovalForAll} event."
      },
      "setBaseURI(string)": {
        "details": "set a new base uri.  example : https://website.com/ipfs/CID/"
      },
      "stopMint()": {
        "details": "disable 'mint' function. Requirements: - Cannot disable mint if mint is already disabled."
      },
      "supportsInterface(bytes4)": {
        "details": "Returns true if this contract implements the interface defined by `interfaceId`. See the corresponding [EIP section](https://eips.ethereum.org/EIPS/eip-165#how-interfaces-are-identified) to learn more about how these ids are created. This function call must use less than 30000 gas."
      },
      "symbol()": {
        "details": "Returns the token collection symbol."
      },
      "tokenURI(uint256)": {
        "details": "return the tokenURI of a NFT Requirements: - Cannot get the URI of unexistent tokenID."
      },
      "totalSupply()": {
        "details": "Returns the total number of tokens in existence. Burned tokens will reduce the count. To get the total number of tokens minted, please see {_totalMinted}."
      },
      "transferFrom(address,address,uint256)": {
        "details": "Transfers `tokenId` from `from` to `to`. Requirements: - `from` cannot be the zero address. - `to` cannot be the zero address. - `tokenId` token must be owned by `from`. - If the caller is not `from`, it must be approved to move this token by either {approve} or {setApprovalForAll}. Emits a {Transfer} event."
      },
      "transferOwnership(address)": {
        "details": "Transfers ownership of the contract to a new account (`newOwner`). Can only be called by the current owner."
      }
    },
    "version": 1
  },
  "userdoc": {
    "errors": {
      "ApprovalCallerNotOwnerNorApproved()": [
        {
          "notice": "The caller must own the token or be an approved operator."
        }
      ],
      "ApprovalQueryForNonexistentToken()": [
        {
          "notice": "The token does not exist."
        }
      ],
      "BalanceQueryForZeroAddress()": [
        {
          "notice": "Cannot query the balance for the zero address."
        }
      ],
      "MintERC2309QuantityExceedsLimit()": [
        {
          "notice": "The `quantity` minted with ERC2309 exceeds the safety limit."
        }
      ],
      "MintToZeroAddress()": [
        {
          "notice": "Cannot mint to the zero address."
        }
      ],
      "MintZeroQuantity()": [
        {
          "notice": "The quantity of tokens minted must be more than zero."
        }
      ],
      "OwnerQueryForNonexistentToken()": [
        {
          "notice": "The token does not exist."
        }
      ],
      "OwnershipNotInitializedForExtraData()": [
        {
          "notice": "The `extraData` cannot be set on an unintialized ownership slot."
        }
      ],
      "TransferCallerNotOwnerNorApproved()": [
        {
          "notice": "The caller must own the token or be an approved operator."
        }
      ],
      "TransferFromIncorrectOwner()": [
        {
          "notice": "The token must be owned by `from`."
        }
      ],
      "TransferToNonERC721ReceiverImplementer()": [
        {
          "notice": "Cannot safely transfer to a contract that does not implement the ERC721Receiver interface."
        }
      ],
      "TransferToZeroAddress()": [
        {
          "notice": "Cannot transfer to the zero address."
        }
      ],
      "URIQueryForNonexistentToken()": [
        {
          "notice": "The token does not exist."
        }
      ]
    },
    "kind": "user",
    "methods": {},
    "version": 1
  }
}